{"abi":[{"inputs":[{"internalType":"uint256","name":"_minimumContribution","type":"uint256"},{"internalType":"address","name":"creator","type":"address"}],"stateMutability":"nonpayable","type":"constructor"},{"inputs":[{"internalType":"uint256","name":"index","type":"uint256"}],"name":"approveRequest","outputs":[],"stateMutability":"nonpayable","type":"function"},{"inputs":[{"internalType":"address","name":"","type":"address"}],"name":"approvers","outputs":[{"internalType":"bool","name":"","type":"bool"}],"stateMutability":"view","type":"function"},{"inputs":[],"name":"approversCount","outputs":[{"internalType":"uint256","name":"","type":"uint256"}],"stateMutability":"view","type":"function"},{"inputs":[],"name":"contribute","outputs":[],"stateMutability":"payable","type":"function"},{"inputs":[{"internalType":"string","name":"_description","type":"string"},{"internalType":"uint256","name":"_value","type":"uint256"},{"internalType":"address","name":"_recipient","type":"address"}],"name":"createRequest","outputs":[],"stateMutability":"nonpayable","type":"function"},{"inputs":[{"internalType":"uint256","name":"index","type":"uint256"}],"name":"finalizeRequest","outputs":[],"stateMutability":"nonpayable","type":"function"},{"inputs":[],"name":"getContractBalance","outputs":[{"internalType":"uint256","name":"","type":"uint256"}],"stateMutability":"view","type":"function"},{"inputs":[],"name":"getRequestsCount","outputs":[{"internalType":"uint256","name":"","type":"uint256"}],"stateMutability":"view","type":"function"},{"inputs":[],"name":"getSummary","outputs":[{"internalType":"uint256","name":"","type":"uint256"},{"internalType":"uint256","name":"","type":"uint256"},{"internalType":"uint256","name":"","type":"uint256"},{"internalType":"uint256","name":"","type":"uint256"},{"internalType":"address","name":"","type":"address"}],"stateMutability":"view","type":"function"},{"inputs":[],"name":"manager","outputs":[{"internalType":"address","name":"","type":"address"}],"stateMutability":"view","type":"function"},{"inputs":[],"name":"minimumContribution","outputs":[{"internalType":"uint256","name":"","type":"uint256"}],"stateMutability":"view","type":"function"},{"inputs":[{"internalType":"uint256","name":"","type":"uint256"}],"name":"requests","outputs":[{"internalType":"string","name":"description","type":"string"},{"internalType":"uint256","name":"value","type":"uint256"},{"internalType":"address payable","name":"recipient","type":"address"},{"internalType":"bool","name":"complete","type":"bool"},{"internalType":"uint256","name":"approvalCount","type":"uint256"}],"stateMutability":"view","type":"function"}],"devdoc":{"kind":"dev","methods":{},"version":1},"evm":{"assembly":"    /* \"Campaign\":470:2840  contract Campaign {... */\n  mstore(0x40, 0x80)\n    /* \"Campaign\":867:1002  constructor(uint _minimumContribution, address creator) {... */\n  callvalue\n  dup1\n  iszero\n  tag_1\n  jumpi\n  0x00\n  dup1\n  revert\ntag_1:\n  pop\n  mload(0x40)\n  sub(codesize, bytecodeSize)\n  dup1\n  bytecodeSize\n  dup4\n  codecopy\n  dup2\n  dup2\n  add\n  0x40\n  mstore\n  dup2\n  add\n  swap1\n  tag_2\n  swap2\n  swap1\n  tag_3\n  jump\t// in\ntag_2:\n    /* \"Campaign\":940:947  creator */\n  dup1\n    /* \"Campaign\":930:937  manager */\n  0x00\n  dup1\n    /* \"Campaign\":930:947  manager = creator */\n  0x0100\n  exp\n  dup2\n  sload\n  dup2\n  0xffffffffffffffffffffffffffffffffffffffff\n  mul\n  not\n  and\n  swap1\n  dup4\n  0xffffffffffffffffffffffffffffffffffffffff\n  and\n  mul\n  or\n  swap1\n  sstore\n  pop\n    /* \"Campaign\":976:996  _minimumContribution */\n  dup2\n    /* \"Campaign\":954:973  minimumContribution */\n  0x01\n    /* \"Campaign\":954:996  minimumContribution = _minimumContribution */\n  dup2\n  swap1\n  sstore\n  pop\n    /* \"Campaign\":867:1002  constructor(uint _minimumContribution, address creator) {... */\n  pop\n  pop\n    /* \"Campaign\":470:2840  contract Campaign {... */\n  jump(tag_6)\n    /* \"#utility.yul\":88:205   */\ntag_8:\n    /* \"#utility.yul\":197:198   */\n  0x00\n    /* \"#utility.yul\":194:195   */\n  dup1\n    /* \"#utility.yul\":187:199   */\n  revert\n    /* \"#utility.yul\":334:411   */\ntag_10:\n    /* \"#utility.yul\":371:378   */\n  0x00\n    /* \"#utility.yul\":400:405   */\n  dup2\n    /* \"#utility.yul\":389:405   */\n  swap1\n  pop\n    /* \"#utility.yul\":334:411   */\n  swap2\n  swap1\n  pop\n  jump\t// out\n    /* \"#utility.yul\":417:539   */\ntag_11:\n    /* \"#utility.yul\":490:514   */\n  tag_23\n    /* \"#utility.yul\":508:513   */\n  dup2\n    /* \"#utility.yul\":490:514   */\n  tag_10\n  jump\t// in\ntag_23:\n    /* \"#utility.yul\":483:488   */\n  dup2\n    /* \"#utility.yul\":480:515   */\n  eq\n    /* \"#utility.yul\":470:533   */\n  tag_24\n  jumpi\n    /* \"#utility.yul\":529:530   */\n  0x00\n    /* \"#utility.yul\":526:527   */\n  dup1\n    /* \"#utility.yul\":519:531   */\n  revert\n    /* \"#utility.yul\":470:533   */\ntag_24:\n    /* \"#utility.yul\":417:539   */\n  pop\n  jump\t// out\n    /* \"#utility.yul\":545:688   */\ntag_12:\n    /* \"#utility.yul\":602:607   */\n  0x00\n    /* \"#utility.yul\":633:639   */\n  dup2\n    /* \"#utility.yul\":627:640   */\n  mload\n    /* \"#utility.yul\":618:640   */\n  swap1\n  pop\n    /* \"#utility.yul\":649:682   */\n  tag_26\n    /* \"#utility.yul\":676:681   */\n  dup2\n    /* \"#utility.yul\":649:682   */\n  tag_11\n  jump\t// in\ntag_26:\n    /* \"#utility.yul\":545:688   */\n  swap3\n  swap2\n  pop\n  pop\n  jump\t// out\n    /* \"#utility.yul\":694:820   */\ntag_13:\n    /* \"#utility.yul\":731:738   */\n  0x00\n    /* \"#utility.yul\":771:813   */\n  0xffffffffffffffffffffffffffffffffffffffff\n    /* \"#utility.yul\":764:769   */\n  dup3\n    /* \"#utility.yul\":760:814   */\n  and\n    /* \"#utility.yul\":749:814   */\n  swap1\n  pop\n    /* \"#utility.yul\":694:820   */\n  swap2\n  swap1\n  pop\n  jump\t// out\n    /* \"#utility.yul\":826:922   */\ntag_14:\n    /* \"#utility.yul\":863:870   */\n  0x00\n    /* \"#utility.yul\":892:916   */\n  tag_29\n    /* \"#utility.yul\":910:915   */\n  dup3\n    /* \"#utility.yul\":892:916   */\n  tag_13\n  jump\t// in\ntag_29:\n    /* \"#utility.yul\":881:916   */\n  swap1\n  pop\n    /* \"#utility.yul\":826:922   */\n  swap2\n  swap1\n  pop\n  jump\t// out\n    /* \"#utility.yul\":928:1050   */\ntag_15:\n    /* \"#utility.yul\":1001:1025   */\n  tag_31\n    /* \"#utility.yul\":1019:1024   */\n  dup2\n    /* \"#utility.yul\":1001:1025   */\n  tag_14\n  jump\t// in\ntag_31:\n    /* \"#utility.yul\":994:999   */\n  dup2\n    /* \"#utility.yul\":991:1026   */\n  eq\n    /* \"#utility.yul\":981:1044   */\n  tag_32\n  jumpi\n    /* \"#utility.yul\":1040:1041   */\n  0x00\n    /* \"#utility.yul\":1037:1038   */\n  dup1\n    /* \"#utility.yul\":1030:1042   */\n  revert\n    /* \"#utility.yul\":981:1044   */\ntag_32:\n    /* \"#utility.yul\":928:1050   */\n  pop\n  jump\t// out\n    /* \"#utility.yul\":1056:1199   */\ntag_16:\n    /* \"#utility.yul\":1113:1118   */\n  0x00\n    /* \"#utility.yul\":1144:1150   */\n  dup2\n    /* \"#utility.yul\":1138:1151   */\n  mload\n    /* \"#utility.yul\":1129:1151   */\n  swap1\n  pop\n    /* \"#utility.yul\":1160:1193   */\n  tag_34\n    /* \"#utility.yul\":1187:1192   */\n  dup2\n    /* \"#utility.yul\":1160:1193   */\n  tag_15\n  jump\t// in\ntag_34:\n    /* \"#utility.yul\":1056:1199   */\n  swap3\n  swap2\n  pop\n  pop\n  jump\t// out\n    /* \"#utility.yul\":1205:1712   */\ntag_3:\n    /* \"#utility.yul\":1284:1290   */\n  0x00\n    /* \"#utility.yul\":1292:1298   */\n  dup1\n    /* \"#utility.yul\":1341:1343   */\n  0x40\n    /* \"#utility.yul\":1329:1338   */\n  dup4\n    /* \"#utility.yul\":1320:1327   */\n  dup6\n    /* \"#utility.yul\":1316:1339   */\n  sub\n    /* \"#utility.yul\":1312:1344   */\n  slt\n    /* \"#utility.yul\":1309:1428   */\n  iszero\n  tag_36\n  jumpi\n    /* \"#utility.yul\":1347:1426   */\n  tag_37\n  tag_8\n  jump\t// in\ntag_37:\n    /* \"#utility.yul\":1309:1428   */\ntag_36:\n    /* \"#utility.yul\":1467:1468   */\n  0x00\n    /* \"#utility.yul\":1492:1556   */\n  tag_38\n    /* \"#utility.yul\":1548:1555   */\n  dup6\n    /* \"#utility.yul\":1539:1545   */\n  dup3\n    /* \"#utility.yul\":1528:1537   */\n  dup7\n    /* \"#utility.yul\":1524:1546   */\n  add\n    /* \"#utility.yul\":1492:1556   */\n  tag_12\n  jump\t// in\ntag_38:\n    /* \"#utility.yul\":1482:1556   */\n  swap3\n  pop\n    /* \"#utility.yul\":1438:1566   */\n  pop\n    /* \"#utility.yul\":1605:1607   */\n  0x20\n    /* \"#utility.yul\":1631:1695   */\n  tag_39\n    /* \"#utility.yul\":1687:1694   */\n  dup6\n    /* \"#utility.yul\":1678:1684   */\n  dup3\n    /* \"#utility.yul\":1667:1676   */\n  dup7\n    /* \"#utility.yul\":1663:1685   */\n  add\n    /* \"#utility.yul\":1631:1695   */\n  tag_16\n  jump\t// in\ntag_39:\n    /* \"#utility.yul\":1621:1695   */\n  swap2\n  pop\n    /* \"#utility.yul\":1576:1705   */\n  pop\n    /* \"#utility.yul\":1205:1712   */\n  swap3\n  pop\n  swap3\n  swap1\n  pop\n  jump\t// out\n    /* \"Campaign\":470:2840  contract Campaign {... */\ntag_6:\n  dataSize(sub_0)\n  dup1\n  dataOffset(sub_0)\n  0x00\n  codecopy\n  0x00\n  return\nstop\n\nsub_0: assembly {\n        /* \"Campaign\":470:2840  contract Campaign {... */\n      mstore(0x40, 0x80)\n      jumpi(tag_1, lt(calldatasize, 0x04))\n      shr(0xe0, calldataload(0x00))\n      dup1\n      0x81d12c58\n      gt\n      tag_14\n      jumpi\n      dup1\n      0x81d12c58\n      eq\n      tag_8\n      jumpi\n      dup1\n      0x82fde093\n      eq\n      tag_9\n      jumpi\n      dup1\n      0x8a9cfd55\n      eq\n      tag_10\n      jumpi\n      dup1\n      0x937e09b1\n      eq\n      tag_11\n      jumpi\n      dup1\n      0xd7bb99ba\n      eq\n      tag_12\n      jumpi\n      dup1\n      0xd7d1bbdb\n      eq\n      tag_13\n      jumpi\n      jump(tag_1)\n    tag_14:\n      dup1\n      0x03441006\n      eq\n      tag_2\n      jumpi\n      dup1\n      0x0a144391\n      eq\n      tag_3\n      jumpi\n      dup1\n      0x3410452a\n      eq\n      tag_4\n      jumpi\n      dup1\n      0x4051ddac\n      eq\n      tag_5\n      jumpi\n      dup1\n      0x481c6a75\n      eq\n      tag_6\n      jumpi\n      dup1\n      0x6f9fb98a\n      eq\n      tag_7\n      jumpi\n    tag_1:\n      0x00\n      dup1\n      revert\n        /* \"Campaign\":2074:2393  function finalizeRequest(uint index) public mustBeManager {... */\n    tag_2:\n      callvalue\n      dup1\n      iszero\n      tag_15\n      jumpi\n      0x00\n      dup1\n      revert\n    tag_15:\n      pop\n      tag_16\n      0x04\n      dup1\n      calldatasize\n      sub\n      dup2\n      add\n      swap1\n      tag_17\n      swap2\n      swap1\n      tag_18\n      jump\t// in\n    tag_17:\n      tag_19\n      jump\t// in\n    tag_16:\n      stop\n        /* \"Campaign\":702:743  mapping(address => bool) public approvers */\n    tag_3:\n      callvalue\n      dup1\n      iszero\n      tag_20\n      jumpi\n      0x00\n      dup1\n      revert\n    tag_20:\n      pop\n      tag_21\n      0x04\n      dup1\n      calldatasize\n      sub\n      dup2\n      add\n      swap1\n      tag_22\n      swap2\n      swap1\n      tag_23\n      jump\t// in\n    tag_22:\n      tag_24\n      jump\t// in\n    tag_21:\n      mload(0x40)\n      tag_25\n      swap2\n      swap1\n      tag_26\n      jump\t// in\n    tag_25:\n      mload(0x40)\n      dup1\n      swap2\n      sub\n      swap1\n      return\n        /* \"Campaign\":2629:2719  function getRequestsCount() public view returns (uint) {... */\n    tag_4:\n      callvalue\n      dup1\n      iszero\n      tag_27\n      jumpi\n      0x00\n      dup1\n      revert\n    tag_27:\n      pop\n      tag_28\n      tag_29\n      jump\t// in\n    tag_28:\n      mload(0x40)\n      tag_30\n      swap2\n      swap1\n      tag_31\n      jump\t// in\n    tag_30:\n      mload(0x40)\n      dup1\n      swap2\n      sub\n      swap1\n      return\n        /* \"Campaign\":2399:2623  function getSummary() public view returns (uint, uint, uint, uint, address) {... */\n    tag_5:\n      callvalue\n      dup1\n      iszero\n      tag_32\n      jumpi\n      0x00\n      dup1\n      revert\n    tag_32:\n      pop\n      tag_33\n      tag_34\n      jump\t// in\n    tag_33:\n      mload(0x40)\n      tag_35\n      swap6\n      swap5\n      swap4\n      swap3\n      swap2\n      swap1\n      tag_36\n      jump\t// in\n    tag_35:\n      mload(0x40)\n      dup1\n      swap2\n      sub\n      swap1\n      return\n        /* \"Campaign\":639:661  address public manager */\n    tag_6:\n      callvalue\n      dup1\n      iszero\n      tag_37\n      jumpi\n      0x00\n      dup1\n      revert\n    tag_37:\n      pop\n      tag_38\n      tag_39\n      jump\t// in\n    tag_38:\n      mload(0x40)\n      tag_40\n      swap2\n      swap1\n      tag_41\n      jump\t// in\n    tag_40:\n      mload(0x40)\n      dup1\n      swap2\n      sub\n      swap1\n      return\n        /* \"Campaign\":2725:2837  function getContractBalance() public view mustBeManager returns (uint) {... */\n    tag_7:\n      callvalue\n      dup1\n      iszero\n      tag_42\n      jumpi\n      0x00\n      dup1\n      revert\n    tag_42:\n      pop\n      tag_43\n      tag_44\n      jump\t// in\n    tag_43:\n      mload(0x40)\n      tag_45\n      swap2\n      swap1\n      tag_31\n      jump\t// in\n    tag_45:\n      mload(0x40)\n      dup1\n      swap2\n      sub\n      swap1\n      return\n        /* \"Campaign\":748:773  Request[] public requests */\n    tag_8:\n      callvalue\n      dup1\n      iszero\n      tag_46\n      jumpi\n      0x00\n      dup1\n      revert\n    tag_46:\n      pop\n      tag_47\n      0x04\n      dup1\n      calldatasize\n      sub\n      dup2\n      add\n      swap1\n      tag_48\n      swap2\n      swap1\n      tag_18\n      jump\t// in\n    tag_48:\n      tag_49\n      jump\t// in\n    tag_47:\n      mload(0x40)\n      tag_50\n      swap6\n      swap5\n      swap4\n      swap3\n      swap2\n      swap1\n      tag_51\n      jump\t// in\n    tag_50:\n      mload(0x40)\n      dup1\n      swap2\n      sub\n      swap1\n      return\n        /* \"Campaign\":834:860  uint public approversCount */\n    tag_9:\n      callvalue\n      dup1\n      iszero\n      tag_52\n      jumpi\n      0x00\n      dup1\n      revert\n    tag_52:\n      pop\n      tag_53\n      tag_54\n      jump\t// in\n    tag_53:\n      mload(0x40)\n      tag_55\n      swap2\n      swap1\n      tag_31\n      jump\t// in\n    tag_55:\n      mload(0x40)\n      dup1\n      swap2\n      sub\n      swap1\n      return\n        /* \"Campaign\":1396:1756  function createRequest(... */\n    tag_10:\n      callvalue\n      dup1\n      iszero\n      tag_56\n      jumpi\n      0x00\n      dup1\n      revert\n    tag_56:\n      pop\n      tag_57\n      0x04\n      dup1\n      calldatasize\n      sub\n      dup2\n      add\n      swap1\n      tag_58\n      swap2\n      swap1\n      tag_59\n      jump\t// in\n    tag_58:\n      tag_60\n      jump\t// in\n    tag_57:\n      stop\n        /* \"Campaign\":666:697  uint public minimumContribution */\n    tag_11:\n      callvalue\n      dup1\n      iszero\n      tag_61\n      jumpi\n      0x00\n      dup1\n      revert\n    tag_61:\n      pop\n      tag_62\n      tag_63\n      jump\t// in\n    tag_62:\n      mload(0x40)\n      tag_64\n      swap2\n      swap1\n      tag_31\n      jump\t// in\n    tag_64:\n      mload(0x40)\n      dup1\n      swap2\n      sub\n      swap1\n      return\n        /* \"Campaign\":1159:1390  function contribute() public payable {... */\n    tag_12:\n      tag_65\n      tag_66\n      jump\t// in\n    tag_65:\n      stop\n        /* \"Campaign\":1762:2068  function approveRequest(uint index) public {... */\n    tag_13:\n      callvalue\n      dup1\n      iszero\n      tag_67\n      jumpi\n      0x00\n      dup1\n      revert\n    tag_67:\n      pop\n      tag_68\n      0x04\n      dup1\n      calldatasize\n      sub\n      dup2\n      add\n      swap1\n      tag_69\n      swap2\n      swap1\n      tag_18\n      jump\t// in\n    tag_69:\n      tag_70\n      jump\t// in\n    tag_68:\n      stop\n        /* \"Campaign\":2074:2393  function finalizeRequest(uint index) public mustBeManager {... */\n    tag_19:\n        /* \"Campaign\":1070:1077  manager */\n      0x00\n      dup1\n      sload\n      swap1\n      0x0100\n      exp\n      swap1\n      div\n      0xffffffffffffffffffffffffffffffffffffffff\n      and\n        /* \"Campaign\":1056:1077  msg.sender == manager */\n      0xffffffffffffffffffffffffffffffffffffffff\n      and\n        /* \"Campaign\":1056:1066  msg.sender */\n      caller\n        /* \"Campaign\":1056:1077  msg.sender == manager */\n      0xffffffffffffffffffffffffffffffffffffffff\n      and\n      eq\n        /* \"Campaign\":1040:1139  require(... */\n      tag_72\n      jumpi\n      mload(0x40)\n      0x08c379a000000000000000000000000000000000000000000000000000000000\n      dup2\n      mstore\n      0x04\n      add\n      tag_73\n      swap1\n      tag_74\n      jump\t// in\n    tag_73:\n      mload(0x40)\n      dup1\n      swap2\n      sub\n      swap1\n      revert\n    tag_72:\n        /* \"Campaign\":2139:2162  Request storage request */\n      0x00\n        /* \"Campaign\":2165:2173  requests */\n      0x03\n        /* \"Campaign\":2174:2179  index */\n      dup3\n        /* \"Campaign\":2165:2180  requests[index] */\n      dup2\n      sload\n      dup2\n      lt\n      tag_76\n      jumpi\n      tag_77\n      tag_78\n      jump\t// in\n    tag_77:\n    tag_76:\n      swap1\n      0x00\n      mstore\n      keccak256(0x00, 0x20)\n      swap1\n      0x04\n      mul\n      add\n        /* \"Campaign\":2139:2180  Request storage request = requests[index] */\n      swap1\n      pop\n        /* \"Campaign\":2198:2205  request */\n      dup1\n        /* \"Campaign\":2198:2214  request.complete */\n      0x02\n      add\n      0x14\n      swap1\n      sload\n      swap1\n      0x0100\n      exp\n      swap1\n      div\n      0xff\n      and\n        /* \"Campaign\":2197:2214  !request.complete */\n      iszero\n        /* \"Campaign\":2189:2247  require(!request.complete, 'Request is already completed') */\n      tag_80\n      jumpi\n      mload(0x40)\n      0x08c379a000000000000000000000000000000000000000000000000000000000\n      dup2\n      mstore\n      0x04\n      add\n      tag_81\n      swap1\n      tag_82\n      jump\t// in\n    tag_81:\n      mload(0x40)\n      dup1\n      swap2\n      sub\n      swap1\n      revert\n    tag_80:\n        /* \"Campaign\":2304:2305  2 */\n      0x02\n        /* \"Campaign\":2287:2301  approversCount */\n      sload(0x05)\n        /* \"Campaign\":2287:2305  approversCount / 2 */\n      tag_83\n      swap2\n      swap1\n      tag_84\n      jump\t// in\n    tag_83:\n        /* \"Campaign\":2262:2269  request */\n      dup2\n        /* \"Campaign\":2262:2283  request.approvalCount */\n      0x03\n      add\n      sload\n        /* \"Campaign\":2262:2306  request.approvalCount > (approversCount / 2) */\n      gt\n        /* \"Campaign\":2254:2307  require(request.approvalCount > (approversCount / 2)) */\n      tag_85\n      jumpi\n      0x00\n      dup1\n      revert\n    tag_85:\n        /* \"Campaign\":2316:2323  request */\n      dup1\n        /* \"Campaign\":2316:2333  request.recipient */\n      0x02\n      add\n      0x00\n      swap1\n      sload\n      swap1\n      0x0100\n      exp\n      swap1\n      div\n      0xffffffffffffffffffffffffffffffffffffffff\n      and\n        /* \"Campaign\":2316:2342  request.recipient.transfer */\n      0xffffffffffffffffffffffffffffffffffffffff\n      and\n        /* \"Campaign\":2316:2357  request.recipient.transfer(request.value) */\n      0x08fc\n        /* \"Campaign\":2343:2350  request */\n      dup3\n        /* \"Campaign\":2343:2356  request.value */\n      0x01\n      add\n      sload\n        /* \"Campaign\":2316:2357  request.recipient.transfer(request.value) */\n      swap1\n      dup2\n      iszero\n      mul\n      swap1\n      mload(0x40)\n      0x00\n      mload(0x40)\n      dup1\n      dup4\n      sub\n      dup2\n      dup6\n      dup9\n      dup9\n      call\n      swap4\n      pop\n      pop\n      pop\n      pop\n      iszero\n      dup1\n      iszero\n      tag_87\n      jumpi\n      returndatasize\n      0x00\n      dup1\n      returndatacopy\n      revert(0x00, returndatasize)\n    tag_87:\n      pop\n        /* \"Campaign\":2383:2387  true */\n      0x01\n        /* \"Campaign\":2364:2371  request */\n      dup2\n        /* \"Campaign\":2364:2380  request.complete */\n      0x02\n      add\n      0x14\n        /* \"Campaign\":2364:2387  request.complete = true */\n      0x0100\n      exp\n      dup2\n      sload\n      dup2\n      0xff\n      mul\n      not\n      and\n      swap1\n      dup4\n      iszero\n      iszero\n      mul\n      or\n      swap1\n      sstore\n      pop\n        /* \"Campaign\":2132:2393  {... */\n      pop\n        /* \"Campaign\":2074:2393  function finalizeRequest(uint index) public mustBeManager {... */\n      pop\n      jump\t// out\n        /* \"Campaign\":702:743  mapping(address => bool) public approvers */\n    tag_24:\n      mstore(0x20, 0x02)\n      dup1\n      0x00\n      mstore\n      keccak256(0x00, 0x40)\n      0x00\n      swap2\n      pop\n      sload\n      swap1\n      0x0100\n      exp\n      swap1\n      div\n      0xff\n      and\n      dup2\n      jump\t// out\n        /* \"Campaign\":2629:2719  function getRequestsCount() public view returns (uint) {... */\n    tag_29:\n        /* \"Campaign\":2678:2682  uint */\n      0x00\n        /* \"Campaign\":2698:2706  requests */\n      0x03\n        /* \"Campaign\":2698:2713  requests.length */\n      dup1\n      sload\n      swap1\n      pop\n        /* \"Campaign\":2691:2713  return requests.length */\n      swap1\n      pop\n        /* \"Campaign\":2629:2719  function getRequestsCount() public view returns (uint) {... */\n      swap1\n      jump\t// out\n        /* \"Campaign\":2399:2623  function getSummary() public view returns (uint, uint, uint, uint, address) {... */\n    tag_34:\n        /* \"Campaign\":2442:2446  uint */\n      0x00\n        /* \"Campaign\":2448:2452  uint */\n      dup1\n        /* \"Campaign\":2454:2458  uint */\n      0x00\n        /* \"Campaign\":2460:2464  uint */\n      dup1\n        /* \"Campaign\":2466:2473  address */\n      0x00\n        /* \"Campaign\":2498:2517  minimumContribution */\n      sload(0x01)\n        /* \"Campaign\":2526:2547  address(this).balance */\n      selfbalance\n        /* \"Campaign\":2556:2564  requests */\n      0x03\n        /* \"Campaign\":2556:2571  requests.length */\n      dup1\n      sload\n      swap1\n      pop\n        /* \"Campaign\":2580:2594  approversCount */\n      sload(0x05)\n        /* \"Campaign\":2603:2610  manager */\n      0x00\n      dup1\n      sload\n      swap1\n      0x0100\n      exp\n      swap1\n      div\n      0xffffffffffffffffffffffffffffffffffffffff\n      and\n        /* \"Campaign\":2482:2617  return (... */\n      swap5\n      pop\n      swap5\n      pop\n      swap5\n      pop\n      swap5\n      pop\n      swap5\n      pop\n        /* \"Campaign\":2399:2623  function getSummary() public view returns (uint, uint, uint, uint, address) {... */\n      swap1\n      swap2\n      swap3\n      swap4\n      swap5\n      jump\t// out\n        /* \"Campaign\":639:661  address public manager */\n    tag_39:\n      0x00\n      dup1\n      sload\n      swap1\n      0x0100\n      exp\n      swap1\n      div\n      0xffffffffffffffffffffffffffffffffffffffff\n      and\n      dup2\n      jump\t// out\n        /* \"Campaign\":2725:2837  function getContractBalance() public view mustBeManager returns (uint) {... */\n    tag_44:\n        /* \"Campaign\":2790:2794  uint */\n      0x00\n        /* \"Campaign\":1070:1077  manager */\n      dup1\n      0x00\n      swap1\n      sload\n      swap1\n      0x0100\n      exp\n      swap1\n      div\n      0xffffffffffffffffffffffffffffffffffffffff\n      and\n        /* \"Campaign\":1056:1077  msg.sender == manager */\n      0xffffffffffffffffffffffffffffffffffffffff\n      and\n        /* \"Campaign\":1056:1066  msg.sender */\n      caller\n        /* \"Campaign\":1056:1077  msg.sender == manager */\n      0xffffffffffffffffffffffffffffffffffffffff\n      and\n      eq\n        /* \"Campaign\":1040:1139  require(... */\n      tag_91\n      jumpi\n      mload(0x40)\n      0x08c379a000000000000000000000000000000000000000000000000000000000\n      dup2\n      mstore\n      0x04\n      add\n      tag_92\n      swap1\n      tag_74\n      jump\t// in\n    tag_92:\n      mload(0x40)\n      dup1\n      swap2\n      sub\n      swap1\n      revert\n    tag_91:\n        /* \"Campaign\":2810:2831  address(this).balance */\n      selfbalance\n        /* \"Campaign\":2803:2831  return address(this).balance */\n      swap1\n      pop\n        /* \"Campaign\":2725:2837  function getContractBalance() public view mustBeManager returns (uint) {... */\n      swap1\n      jump\t// out\n        /* \"Campaign\":748:773  Request[] public requests */\n    tag_49:\n      0x03\n      dup2\n      dup2\n      sload\n      dup2\n      lt\n      tag_94\n      jumpi\n      0x00\n      dup1\n      revert\n    tag_94:\n      swap1\n      0x00\n      mstore\n      keccak256(0x00, 0x20)\n      swap1\n      0x04\n      mul\n      add\n      0x00\n      swap2\n      pop\n      swap1\n      pop\n      dup1\n      0x00\n      add\n      dup1\n      sload\n      tag_96\n      swap1\n      tag_97\n      jump\t// in\n    tag_96:\n      dup1\n      0x1f\n      add\n      0x20\n      dup1\n      swap2\n      div\n      mul\n      0x20\n      add\n      mload(0x40)\n      swap1\n      dup2\n      add\n      0x40\n      mstore\n      dup1\n      swap3\n      swap2\n      swap1\n      dup2\n      dup2\n      mstore\n      0x20\n      add\n      dup3\n      dup1\n      sload\n      tag_98\n      swap1\n      tag_97\n      jump\t// in\n    tag_98:\n      dup1\n      iszero\n      tag_99\n      jumpi\n      dup1\n      0x1f\n      lt\n      tag_100\n      jumpi\n      0x0100\n      dup1\n      dup4\n      sload\n      div\n      mul\n      dup4\n      mstore\n      swap2\n      0x20\n      add\n      swap2\n      jump(tag_99)\n    tag_100:\n      dup3\n      add\n      swap2\n      swap1\n      0x00\n      mstore\n      keccak256(0x00, 0x20)\n      swap1\n    tag_101:\n      dup2\n      sload\n      dup2\n      mstore\n      swap1\n      0x01\n      add\n      swap1\n      0x20\n      add\n      dup1\n      dup4\n      gt\n      tag_101\n      jumpi\n      dup3\n      swap1\n      sub\n      0x1f\n      and\n      dup3\n      add\n      swap2\n    tag_99:\n      pop\n      pop\n      pop\n      pop\n      pop\n      swap1\n      dup1\n      0x01\n      add\n      sload\n      swap1\n      dup1\n      0x02\n      add\n      0x00\n      swap1\n      sload\n      swap1\n      0x0100\n      exp\n      swap1\n      div\n      0xffffffffffffffffffffffffffffffffffffffff\n      and\n      swap1\n      dup1\n      0x02\n      add\n      0x14\n      swap1\n      sload\n      swap1\n      0x0100\n      exp\n      swap1\n      div\n      0xff\n      and\n      swap1\n      dup1\n      0x03\n      add\n      sload\n      swap1\n      pop\n      dup6\n      jump\t// out\n        /* \"Campaign\":834:860  uint public approversCount */\n    tag_54:\n      sload(0x05)\n      dup2\n      jump\t// out\n        /* \"Campaign\":1396:1756  function createRequest(... */\n    tag_60:\n        /* \"Campaign\":1070:1077  manager */\n      0x00\n      dup1\n      sload\n      swap1\n      0x0100\n      exp\n      swap1\n      div\n      0xffffffffffffffffffffffffffffffffffffffff\n      and\n        /* \"Campaign\":1056:1077  msg.sender == manager */\n      0xffffffffffffffffffffffffffffffffffffffff\n      and\n        /* \"Campaign\":1056:1066  msg.sender */\n      caller\n        /* \"Campaign\":1056:1077  msg.sender == manager */\n      0xffffffffffffffffffffffffffffffffffffffff\n      and\n      eq\n        /* \"Campaign\":1040:1139  require(... */\n      tag_103\n      jumpi\n      mload(0x40)\n      0x08c379a000000000000000000000000000000000000000000000000000000000\n      dup2\n      mstore\n      0x04\n      add\n      tag_104\n      swap1\n      tag_74\n      jump\t// in\n    tag_104:\n      mload(0x40)\n      dup1\n      swap2\n      sub\n      swap1\n      revert\n    tag_103:\n        /* \"Campaign\":1528:1553  Request memory newRequest */\n      0x00\n        /* \"Campaign\":1556:1716  Request({... */\n      mload(0x40)\n      dup1\n      0xa0\n      add\n      0x40\n      mstore\n      dup1\n        /* \"Campaign\":1586:1598  _description */\n      dup6\n        /* \"Campaign\":1556:1716  Request({... */\n      dup2\n      mstore\n      0x20\n      add\n        /* \"Campaign\":1614:1620  _value */\n      dup5\n        /* \"Campaign\":1556:1716  Request({... */\n      dup2\n      mstore\n      0x20\n      add\n        /* \"Campaign\":1648:1658  _recipient */\n      dup4\n        /* \"Campaign\":1556:1716  Request({... */\n      0xffffffffffffffffffffffffffffffffffffffff\n      and\n      dup2\n      mstore\n      0x20\n      add\n        /* \"Campaign\":1678:1683  false */\n      0x00\n        /* \"Campaign\":1556:1716  Request({... */\n      iszero\n      iszero\n      dup2\n      mstore\n      0x20\n      add\n        /* \"Campaign\":1707:1708  0 */\n      0x00\n        /* \"Campaign\":1556:1716  Request({... */\n      dup2\n      mstore\n      pop\n        /* \"Campaign\":1528:1716  Request memory newRequest = Request({... */\n      swap1\n      pop\n        /* \"Campaign\":1725:1733  requests */\n      0x03\n        /* \"Campaign\":1739:1749  newRequest */\n      dup2\n        /* \"Campaign\":1725:1750  requests.push(newRequest) */\n      swap1\n      dup1\n      0x01\n      dup2\n      sload\n      add\n      dup1\n      dup3\n      sstore\n      dup1\n      swap2\n      pop\n      pop\n      0x01\n      swap1\n      sub\n      swap1\n      0x00\n      mstore\n      keccak256(0x00, 0x20)\n      swap1\n      0x04\n      mul\n      add\n      0x00\n      swap1\n      swap2\n      swap1\n      swap2\n      swap1\n      swap2\n      pop\n      0x00\n      dup3\n      add\n      mload\n      dup2\n      0x00\n      add\n      swap1\n      dup2\n      tag_107\n      swap2\n      swap1\n      tag_108\n      jump\t// in\n    tag_107:\n      pop\n      0x20\n      dup3\n      add\n      mload\n      dup2\n      0x01\n      add\n      sstore\n      0x40\n      dup3\n      add\n      mload\n      dup2\n      0x02\n      add\n      exp(0x0100, 0x00)\n      dup2\n      sload\n      dup2\n      0xffffffffffffffffffffffffffffffffffffffff\n      mul\n      not\n      and\n      swap1\n      dup4\n      0xffffffffffffffffffffffffffffffffffffffff\n      and\n      mul\n      or\n      swap1\n      sstore\n      pop\n      0x60\n      dup3\n      add\n      mload\n      dup2\n      0x02\n      add\n      exp(0x0100, 0x14)\n      dup2\n      sload\n      dup2\n      0xff\n      mul\n      not\n      and\n      swap1\n      dup4\n      iszero\n      iszero\n      mul\n      or\n      swap1\n      sstore\n      pop\n      0x80\n      dup3\n      add\n      mload\n      dup2\n      0x03\n      add\n      sstore\n      pop\n      pop\n        /* \"Campaign\":1521:1756  {... */\n      pop\n        /* \"Campaign\":1396:1756  function createRequest(... */\n      pop\n      pop\n      pop\n      jump\t// out\n        /* \"Campaign\":666:697  uint public minimumContribution */\n    tag_63:\n      sload(0x01)\n      dup2\n      jump\t// out\n        /* \"Campaign\":1159:1390  function contribute() public payable {... */\n    tag_66:\n        /* \"Campaign\":1231:1250  minimumContribution */\n      sload(0x01)\n        /* \"Campaign\":1219:1228  msg.value */\n      callvalue\n        /* \"Campaign\":1219:1250  msg.value > minimumContribution */\n      gt\n        /* \"Campaign\":1203:1324  require(... */\n      tag_110\n      jumpi\n      mload(0x40)\n      0x08c379a000000000000000000000000000000000000000000000000000000000\n      dup2\n      mstore\n      0x04\n      add\n      tag_111\n      swap1\n      tag_112\n      jump\t// in\n    tag_111:\n      mload(0x40)\n      dup1\n      swap2\n      sub\n      swap1\n      revert\n    tag_110:\n        /* \"Campaign\":1357:1361  true */\n      0x01\n        /* \"Campaign\":1333:1342  approvers */\n      0x02\n        /* \"Campaign\":1333:1354  approvers[msg.sender] */\n      0x00\n        /* \"Campaign\":1343:1353  msg.sender */\n      caller\n        /* \"Campaign\":1333:1354  approvers[msg.sender] */\n      0xffffffffffffffffffffffffffffffffffffffff\n      and\n      0xffffffffffffffffffffffffffffffffffffffff\n      and\n      dup2\n      mstore\n      0x20\n      add\n      swap1\n      dup2\n      mstore\n      0x20\n      add\n      0x00\n      keccak256\n      0x00\n        /* \"Campaign\":1333:1361  approvers[msg.sender] = true */\n      0x0100\n      exp\n      dup2\n      sload\n      dup2\n      0xff\n      mul\n      not\n      and\n      swap1\n      dup4\n      iszero\n      iszero\n      mul\n      or\n      swap1\n      sstore\n      pop\n        /* \"Campaign\":1368:1382  approversCount */\n      0x05\n      0x00\n        /* \"Campaign\":1368:1384  approversCount++ */\n      dup2\n      sload\n      dup1\n      swap3\n      swap2\n      swap1\n      tag_113\n      swap1\n      tag_114\n      jump\t// in\n    tag_113:\n      swap2\n      swap1\n      pop\n      sstore\n      pop\n        /* \"Campaign\":1159:1390  function contribute() public payable {... */\n      jump\t// out\n        /* \"Campaign\":1762:2068  function approveRequest(uint index) public {... */\n    tag_70:\n        /* \"Campaign\":1820:1829  approvers */\n      0x02\n        /* \"Campaign\":1820:1841  approvers[msg.sender] */\n      0x00\n        /* \"Campaign\":1830:1840  msg.sender */\n      caller\n        /* \"Campaign\":1820:1841  approvers[msg.sender] */\n      0xffffffffffffffffffffffffffffffffffffffff\n      and\n      0xffffffffffffffffffffffffffffffffffffffff\n      and\n      dup2\n      mstore\n      0x20\n      add\n      swap1\n      dup2\n      mstore\n      0x20\n      add\n      0x00\n      keccak256\n      0x00\n      swap1\n      sload\n      swap1\n      0x0100\n      exp\n      swap1\n      div\n      0xff\n      and\n        /* \"Campaign\":1812:1870  require(approvers[msg.sender], 'Caller is not a approver') */\n      tag_116\n      jumpi\n      mload(0x40)\n      0x08c379a000000000000000000000000000000000000000000000000000000000\n      dup2\n      mstore\n      0x04\n      add\n      tag_117\n      swap1\n      tag_118\n      jump\t// in\n    tag_117:\n      mload(0x40)\n      dup1\n      swap2\n      sub\n      swap1\n      revert\n    tag_116:\n        /* \"Campaign\":1894:1903  approvals */\n      0x04\n        /* \"Campaign\":1894:1910  approvals[index] */\n      0x00\n        /* \"Campaign\":1904:1909  index */\n      dup3\n        /* \"Campaign\":1894:1910  approvals[index] */\n      dup2\n      mstore\n      0x20\n      add\n      swap1\n      dup2\n      mstore\n      0x20\n      add\n      0x00\n      keccak256\n        /* \"Campaign\":1894:1922  approvals[index][msg.sender] */\n      0x00\n        /* \"Campaign\":1911:1921  msg.sender */\n      caller\n        /* \"Campaign\":1894:1922  approvals[index][msg.sender] */\n      0xffffffffffffffffffffffffffffffffffffffff\n      and\n      0xffffffffffffffffffffffffffffffffffffffff\n      and\n      dup2\n      mstore\n      0x20\n      add\n      swap1\n      dup2\n      mstore\n      0x20\n      add\n      0x00\n      keccak256\n      0x00\n      swap1\n      sload\n      swap1\n      0x0100\n      exp\n      swap1\n      div\n      0xff\n      and\n        /* \"Campaign\":1893:1922  !approvals[index][msg.sender] */\n      iszero\n        /* \"Campaign\":1877:1980  require(... */\n      tag_119\n      jumpi\n      mload(0x40)\n      0x08c379a000000000000000000000000000000000000000000000000000000000\n      dup2\n      mstore\n      0x04\n      add\n      tag_120\n      swap1\n      tag_121\n      jump\t// in\n    tag_120:\n      mload(0x40)\n      dup1\n      swap2\n      sub\n      swap1\n      revert\n    tag_119:\n        /* \"Campaign\":1989:1997  requests */\n      0x03\n        /* \"Campaign\":1998:2003  index */\n      dup2\n        /* \"Campaign\":1989:2004  requests[index] */\n      dup2\n      sload\n      dup2\n      lt\n      tag_122\n      jumpi\n      tag_123\n      tag_78\n      jump\t// in\n    tag_123:\n    tag_122:\n      swap1\n      0x00\n      mstore\n      keccak256(0x00, 0x20)\n      swap1\n      0x04\n      mul\n      add\n        /* \"Campaign\":1989:2018  requests[index].approvalCount */\n      0x03\n      add\n      0x00\n        /* \"Campaign\":1989:2020  requests[index].approvalCount++ */\n      dup2\n      sload\n      dup1\n      swap3\n      swap2\n      swap1\n      tag_125\n      swap1\n      tag_114\n      jump\t// in\n    tag_125:\n      swap2\n      swap1\n      pop\n      sstore\n      pop\n        /* \"Campaign\":2058:2062  true */\n      0x01\n        /* \"Campaign\":2027:2036  approvals */\n      0x04\n        /* \"Campaign\":2027:2043  approvals[index] */\n      0x00\n        /* \"Campaign\":2037:2042  index */\n      dup4\n        /* \"Campaign\":2027:2043  approvals[index] */\n      dup2\n      mstore\n      0x20\n      add\n      swap1\n      dup2\n      mstore\n      0x20\n      add\n      0x00\n      keccak256\n        /* \"Campaign\":2027:2055  approvals[index][msg.sender] */\n      0x00\n        /* \"Campaign\":2044:2054  msg.sender */\n      caller\n        /* \"Campaign\":2027:2055  approvals[index][msg.sender] */\n      0xffffffffffffffffffffffffffffffffffffffff\n      and\n      0xffffffffffffffffffffffffffffffffffffffff\n      and\n      dup2\n      mstore\n      0x20\n      add\n      swap1\n      dup2\n      mstore\n      0x20\n      add\n      0x00\n      keccak256\n      0x00\n        /* \"Campaign\":2027:2062  approvals[index][msg.sender] = true */\n      0x0100\n      exp\n      dup2\n      sload\n      dup2\n      0xff\n      mul\n      not\n      and\n      swap1\n      dup4\n      iszero\n      iszero\n      mul\n      or\n      swap1\n      sstore\n      pop\n        /* \"Campaign\":1762:2068  function approveRequest(uint index) public {... */\n      pop\n      jump\t// out\n        /* \"#utility.yul\":7:82   */\n    tag_126:\n        /* \"#utility.yul\":40:46   */\n      0x00\n        /* \"#utility.yul\":73:75   */\n      0x40\n        /* \"#utility.yul\":67:76   */\n      mload\n        /* \"#utility.yul\":57:76   */\n      swap1\n      pop\n        /* \"#utility.yul\":7:82   */\n      swap1\n      jump\t// out\n        /* \"#utility.yul\":88:205   */\n    tag_127:\n        /* \"#utility.yul\":197:198   */\n      0x00\n        /* \"#utility.yul\":194:195   */\n      dup1\n        /* \"#utility.yul\":187:199   */\n      revert\n        /* \"#utility.yul\":211:328   */\n    tag_128:\n        /* \"#utility.yul\":320:321   */\n      0x00\n        /* \"#utility.yul\":317:318   */\n      dup1\n        /* \"#utility.yul\":310:322   */\n      revert\n        /* \"#utility.yul\":334:411   */\n    tag_129:\n        /* \"#utility.yul\":371:378   */\n      0x00\n        /* \"#utility.yul\":400:405   */\n      dup2\n        /* \"#utility.yul\":389:405   */\n      swap1\n      pop\n        /* \"#utility.yul\":334:411   */\n      swap2\n      swap1\n      pop\n      jump\t// out\n        /* \"#utility.yul\":417:539   */\n    tag_130:\n        /* \"#utility.yul\":490:514   */\n      tag_190\n        /* \"#utility.yul\":508:513   */\n      dup2\n        /* \"#utility.yul\":490:514   */\n      tag_129\n      jump\t// in\n    tag_190:\n        /* \"#utility.yul\":483:488   */\n      dup2\n        /* \"#utility.yul\":480:515   */\n      eq\n        /* \"#utility.yul\":470:533   */\n      tag_191\n      jumpi\n        /* \"#utility.yul\":529:530   */\n      0x00\n        /* \"#utility.yul\":526:527   */\n      dup1\n        /* \"#utility.yul\":519:531   */\n      revert\n        /* \"#utility.yul\":470:533   */\n    tag_191:\n        /* \"#utility.yul\":417:539   */\n      pop\n      jump\t// out\n        /* \"#utility.yul\":545:684   */\n    tag_131:\n        /* \"#utility.yul\":591:596   */\n      0x00\n        /* \"#utility.yul\":629:635   */\n      dup2\n        /* \"#utility.yul\":616:636   */\n      calldataload\n        /* \"#utility.yul\":607:636   */\n      swap1\n      pop\n        /* \"#utility.yul\":645:678   */\n      tag_193\n        /* \"#utility.yul\":672:677   */\n      dup2\n        /* \"#utility.yul\":645:678   */\n      tag_130\n      jump\t// in\n    tag_193:\n        /* \"#utility.yul\":545:684   */\n      swap3\n      swap2\n      pop\n      pop\n      jump\t// out\n        /* \"#utility.yul\":690:1019   */\n    tag_18:\n        /* \"#utility.yul\":749:755   */\n      0x00\n        /* \"#utility.yul\":798:800   */\n      0x20\n        /* \"#utility.yul\":786:795   */\n      dup3\n        /* \"#utility.yul\":777:784   */\n      dup5\n        /* \"#utility.yul\":773:796   */\n      sub\n        /* \"#utility.yul\":769:801   */\n      slt\n        /* \"#utility.yul\":766:885   */\n      iszero\n      tag_195\n      jumpi\n        /* \"#utility.yul\":804:883   */\n      tag_196\n      tag_127\n      jump\t// in\n    tag_196:\n        /* \"#utility.yul\":766:885   */\n    tag_195:\n        /* \"#utility.yul\":924:925   */\n      0x00\n        /* \"#utility.yul\":949:1002   */\n      tag_197\n        /* \"#utility.yul\":994:1001   */\n      dup5\n        /* \"#utility.yul\":985:991   */\n      dup3\n        /* \"#utility.yul\":974:983   */\n      dup6\n        /* \"#utility.yul\":970:992   */\n      add\n        /* \"#utility.yul\":949:1002   */\n      tag_131\n      jump\t// in\n    tag_197:\n        /* \"#utility.yul\":939:1002   */\n      swap2\n      pop\n        /* \"#utility.yul\":895:1012   */\n      pop\n        /* \"#utility.yul\":690:1019   */\n      swap3\n      swap2\n      pop\n      pop\n      jump\t// out\n        /* \"#utility.yul\":1025:1151   */\n    tag_132:\n        /* \"#utility.yul\":1062:1069   */\n      0x00\n        /* \"#utility.yul\":1102:1144   */\n      0xffffffffffffffffffffffffffffffffffffffff\n        /* \"#utility.yul\":1095:1100   */\n      dup3\n        /* \"#utility.yul\":1091:1145   */\n      and\n        /* \"#utility.yul\":1080:1145   */\n      swap1\n      pop\n        /* \"#utility.yul\":1025:1151   */\n      swap2\n      swap1\n      pop\n      jump\t// out\n        /* \"#utility.yul\":1157:1253   */\n    tag_133:\n        /* \"#utility.yul\":1194:1201   */\n      0x00\n        /* \"#utility.yul\":1223:1247   */\n      tag_200\n        /* \"#utility.yul\":1241:1246   */\n      dup3\n        /* \"#utility.yul\":1223:1247   */\n      tag_132\n      jump\t// in\n    tag_200:\n        /* \"#utility.yul\":1212:1247   */\n      swap1\n      pop\n        /* \"#utility.yul\":1157:1253   */\n      swap2\n      swap1\n      pop\n      jump\t// out\n        /* \"#utility.yul\":1259:1381   */\n    tag_134:\n        /* \"#utility.yul\":1332:1356   */\n      tag_202\n        /* \"#utility.yul\":1350:1355   */\n      dup2\n        /* \"#utility.yul\":1332:1356   */\n      tag_133\n      jump\t// in\n    tag_202:\n        /* \"#utility.yul\":1325:1330   */\n      dup2\n        /* \"#utility.yul\":1322:1357   */\n      eq\n        /* \"#utility.yul\":1312:1375   */\n      tag_203\n      jumpi\n        /* \"#utility.yul\":1371:1372   */\n      0x00\n        /* \"#utility.yul\":1368:1369   */\n      dup1\n        /* \"#utility.yul\":1361:1373   */\n      revert\n        /* \"#utility.yul\":1312:1375   */\n    tag_203:\n        /* \"#utility.yul\":1259:1381   */\n      pop\n      jump\t// out\n        /* \"#utility.yul\":1387:1526   */\n    tag_135:\n        /* \"#utility.yul\":1433:1438   */\n      0x00\n        /* \"#utility.yul\":1471:1477   */\n      dup2\n        /* \"#utility.yul\":1458:1478   */\n      calldataload\n        /* \"#utility.yul\":1449:1478   */\n      swap1\n      pop\n        /* \"#utility.yul\":1487:1520   */\n      tag_205\n        /* \"#utility.yul\":1514:1519   */\n      dup2\n        /* \"#utility.yul\":1487:1520   */\n      tag_134\n      jump\t// in\n    tag_205:\n        /* \"#utility.yul\":1387:1526   */\n      swap3\n      swap2\n      pop\n      pop\n      jump\t// out\n        /* \"#utility.yul\":1532:1861   */\n    tag_23:\n        /* \"#utility.yul\":1591:1597   */\n      0x00\n        /* \"#utility.yul\":1640:1642   */\n      0x20\n        /* \"#utility.yul\":1628:1637   */\n      dup3\n        /* \"#utility.yul\":1619:1626   */\n      dup5\n        /* \"#utility.yul\":1615:1638   */\n      sub\n        /* \"#utility.yul\":1611:1643   */\n      slt\n        /* \"#utility.yul\":1608:1727   */\n      iszero\n      tag_207\n      jumpi\n        /* \"#utility.yul\":1646:1725   */\n      tag_208\n      tag_127\n      jump\t// in\n    tag_208:\n        /* \"#utility.yul\":1608:1727   */\n    tag_207:\n        /* \"#utility.yul\":1766:1767   */\n      0x00\n        /* \"#utility.yul\":1791:1844   */\n      tag_209\n        /* \"#utility.yul\":1836:1843   */\n      dup5\n        /* \"#utility.yul\":1827:1833   */\n      dup3\n        /* \"#utility.yul\":1816:1825   */\n      dup6\n        /* \"#utility.yul\":1812:1834   */\n      add\n        /* \"#utility.yul\":1791:1844   */\n      tag_135\n      jump\t// in\n    tag_209:\n        /* \"#utility.yul\":1781:1844   */\n      swap2\n      pop\n        /* \"#utility.yul\":1737:1854   */\n      pop\n        /* \"#utility.yul\":1532:1861   */\n      swap3\n      swap2\n      pop\n      pop\n      jump\t// out\n        /* \"#utility.yul\":1867:1957   */\n    tag_136:\n        /* \"#utility.yul\":1901:1908   */\n      0x00\n        /* \"#utility.yul\":1944:1949   */\n      dup2\n        /* \"#utility.yul\":1937:1950   */\n      iszero\n        /* \"#utility.yul\":1930:1951   */\n      iszero\n        /* \"#utility.yul\":1919:1951   */\n      swap1\n      pop\n        /* \"#utility.yul\":1867:1957   */\n      swap2\n      swap1\n      pop\n      jump\t// out\n        /* \"#utility.yul\":1963:2072   */\n    tag_137:\n        /* \"#utility.yul\":2044:2065   */\n      tag_212\n        /* \"#utility.yul\":2059:2064   */\n      dup2\n        /* \"#utility.yul\":2044:2065   */\n      tag_136\n      jump\t// in\n    tag_212:\n        /* \"#utility.yul\":2039:2042   */\n      dup3\n        /* \"#utility.yul\":2032:2066   */\n      mstore\n        /* \"#utility.yul\":1963:2072   */\n      pop\n      pop\n      jump\t// out\n        /* \"#utility.yul\":2078:2288   */\n    tag_26:\n        /* \"#utility.yul\":2165:2169   */\n      0x00\n        /* \"#utility.yul\":2203:2205   */\n      0x20\n        /* \"#utility.yul\":2192:2201   */\n      dup3\n        /* \"#utility.yul\":2188:2206   */\n      add\n        /* \"#utility.yul\":2180:2206   */\n      swap1\n      pop\n        /* \"#utility.yul\":2216:2281   */\n      tag_214\n        /* \"#utility.yul\":2278:2279   */\n      0x00\n        /* \"#utility.yul\":2267:2276   */\n      dup4\n        /* \"#utility.yul\":2263:2280   */\n      add\n        /* \"#utility.yul\":2254:2260   */\n      dup5\n        /* \"#utility.yul\":2216:2281   */\n      tag_137\n      jump\t// in\n    tag_214:\n        /* \"#utility.yul\":2078:2288   */\n      swap3\n      swap2\n      pop\n      pop\n      jump\t// out\n        /* \"#utility.yul\":2294:2412   */\n    tag_138:\n        /* \"#utility.yul\":2381:2405   */\n      tag_216\n        /* \"#utility.yul\":2399:2404   */\n      dup2\n        /* \"#utility.yul\":2381:2405   */\n      tag_129\n      jump\t// in\n    tag_216:\n        /* \"#utility.yul\":2376:2379   */\n      dup3\n        /* \"#utility.yul\":2369:2406   */\n      mstore\n        /* \"#utility.yul\":2294:2412   */\n      pop\n      pop\n      jump\t// out\n        /* \"#utility.yul\":2418:2640   */\n    tag_31:\n        /* \"#utility.yul\":2511:2515   */\n      0x00\n        /* \"#utility.yul\":2549:2551   */\n      0x20\n        /* \"#utility.yul\":2538:2547   */\n      dup3\n        /* \"#utility.yul\":2534:2552   */\n      add\n        /* \"#utility.yul\":2526:2552   */\n      swap1\n      pop\n        /* \"#utility.yul\":2562:2633   */\n      tag_218\n        /* \"#utility.yul\":2630:2631   */\n      0x00\n        /* \"#utility.yul\":2619:2628   */\n      dup4\n        /* \"#utility.yul\":2615:2632   */\n      add\n        /* \"#utility.yul\":2606:2612   */\n      dup5\n        /* \"#utility.yul\":2562:2633   */\n      tag_138\n      jump\t// in\n    tag_218:\n        /* \"#utility.yul\":2418:2640   */\n      swap3\n      swap2\n      pop\n      pop\n      jump\t// out\n        /* \"#utility.yul\":2646:2764   */\n    tag_139:\n        /* \"#utility.yul\":2733:2757   */\n      tag_220\n        /* \"#utility.yul\":2751:2756   */\n      dup2\n        /* \"#utility.yul\":2733:2757   */\n      tag_133\n      jump\t// in\n    tag_220:\n        /* \"#utility.yul\":2728:2731   */\n      dup3\n        /* \"#utility.yul\":2721:2758   */\n      mstore\n        /* \"#utility.yul\":2646:2764   */\n      pop\n      pop\n      jump\t// out\n        /* \"#utility.yul\":2770:3434   */\n    tag_36:\n        /* \"#utility.yul\":2975:2979   */\n      0x00\n        /* \"#utility.yul\":3013:3016   */\n      0xa0\n        /* \"#utility.yul\":3002:3011   */\n      dup3\n        /* \"#utility.yul\":2998:3017   */\n      add\n        /* \"#utility.yul\":2990:3017   */\n      swap1\n      pop\n        /* \"#utility.yul\":3027:3098   */\n      tag_222\n        /* \"#utility.yul\":3095:3096   */\n      0x00\n        /* \"#utility.yul\":3084:3093   */\n      dup4\n        /* \"#utility.yul\":3080:3097   */\n      add\n        /* \"#utility.yul\":3071:3077   */\n      dup9\n        /* \"#utility.yul\":3027:3098   */\n      tag_138\n      jump\t// in\n    tag_222:\n        /* \"#utility.yul\":3108:3180   */\n      tag_223\n        /* \"#utility.yul\":3176:3178   */\n      0x20\n        /* \"#utility.yul\":3165:3174   */\n      dup4\n        /* \"#utility.yul\":3161:3179   */\n      add\n        /* \"#utility.yul\":3152:3158   */\n      dup8\n        /* \"#utility.yul\":3108:3180   */\n      tag_138\n      jump\t// in\n    tag_223:\n        /* \"#utility.yul\":3190:3262   */\n      tag_224\n        /* \"#utility.yul\":3258:3260   */\n      0x40\n        /* \"#utility.yul\":3247:3256   */\n      dup4\n        /* \"#utility.yul\":3243:3261   */\n      add\n        /* \"#utility.yul\":3234:3240   */\n      dup7\n        /* \"#utility.yul\":3190:3262   */\n      tag_138\n      jump\t// in\n    tag_224:\n        /* \"#utility.yul\":3272:3344   */\n      tag_225\n        /* \"#utility.yul\":3340:3342   */\n      0x60\n        /* \"#utility.yul\":3329:3338   */\n      dup4\n        /* \"#utility.yul\":3325:3343   */\n      add\n        /* \"#utility.yul\":3316:3322   */\n      dup6\n        /* \"#utility.yul\":3272:3344   */\n      tag_138\n      jump\t// in\n    tag_225:\n        /* \"#utility.yul\":3354:3427   */\n      tag_226\n        /* \"#utility.yul\":3422:3425   */\n      0x80\n        /* \"#utility.yul\":3411:3420   */\n      dup4\n        /* \"#utility.yul\":3407:3426   */\n      add\n        /* \"#utility.yul\":3398:3404   */\n      dup5\n        /* \"#utility.yul\":3354:3427   */\n      tag_139\n      jump\t// in\n    tag_226:\n        /* \"#utility.yul\":2770:3434   */\n      swap7\n      swap6\n      pop\n      pop\n      pop\n      pop\n      pop\n      pop\n      jump\t// out\n        /* \"#utility.yul\":3440:3662   */\n    tag_41:\n        /* \"#utility.yul\":3533:3537   */\n      0x00\n        /* \"#utility.yul\":3571:3573   */\n      0x20\n        /* \"#utility.yul\":3560:3569   */\n      dup3\n        /* \"#utility.yul\":3556:3574   */\n      add\n        /* \"#utility.yul\":3548:3574   */\n      swap1\n      pop\n        /* \"#utility.yul\":3584:3655   */\n      tag_228\n        /* \"#utility.yul\":3652:3653   */\n      0x00\n        /* \"#utility.yul\":3641:3650   */\n      dup4\n        /* \"#utility.yul\":3637:3654   */\n      add\n        /* \"#utility.yul\":3628:3634   */\n      dup5\n        /* \"#utility.yul\":3584:3655   */\n      tag_139\n      jump\t// in\n    tag_228:\n        /* \"#utility.yul\":3440:3662   */\n      swap3\n      swap2\n      pop\n      pop\n      jump\t// out\n        /* \"#utility.yul\":3668:3767   */\n    tag_140:\n        /* \"#utility.yul\":3720:3726   */\n      0x00\n        /* \"#utility.yul\":3754:3759   */\n      dup2\n        /* \"#utility.yul\":3748:3760   */\n      mload\n        /* \"#utility.yul\":3738:3760   */\n      swap1\n      pop\n        /* \"#utility.yul\":3668:3767   */\n      swap2\n      swap1\n      pop\n      jump\t// out\n        /* \"#utility.yul\":3773:3942   */\n    tag_141:\n        /* \"#utility.yul\":3857:3868   */\n      0x00\n        /* \"#utility.yul\":3891:3897   */\n      dup3\n        /* \"#utility.yul\":3886:3889   */\n      dup3\n        /* \"#utility.yul\":3879:3898   */\n      mstore\n        /* \"#utility.yul\":3931:3935   */\n      0x20\n        /* \"#utility.yul\":3926:3929   */\n      dup3\n        /* \"#utility.yul\":3922:3936   */\n      add\n        /* \"#utility.yul\":3907:3936   */\n      swap1\n      pop\n        /* \"#utility.yul\":3773:3942   */\n      swap3\n      swap2\n      pop\n      pop\n      jump\t// out\n        /* \"#utility.yul\":3948:4194   */\n    tag_142:\n        /* \"#utility.yul\":4029:4030   */\n      0x00\n        /* \"#utility.yul\":4039:4152   */\n    tag_232:\n        /* \"#utility.yul\":4053:4059   */\n      dup4\n        /* \"#utility.yul\":4050:4051   */\n      dup2\n        /* \"#utility.yul\":4047:4060   */\n      lt\n        /* \"#utility.yul\":4039:4152   */\n      iszero\n      tag_234\n      jumpi\n        /* \"#utility.yul\":4138:4139   */\n      dup1\n        /* \"#utility.yul\":4133:4136   */\n      dup3\n        /* \"#utility.yul\":4129:4140   */\n      add\n        /* \"#utility.yul\":4123:4141   */\n      mload\n        /* \"#utility.yul\":4119:4120   */\n      dup2\n        /* \"#utility.yul\":4114:4117   */\n      dup5\n        /* \"#utility.yul\":4110:4121   */\n      add\n        /* \"#utility.yul\":4103:4142   */\n      mstore\n        /* \"#utility.yul\":4075:4077   */\n      0x20\n        /* \"#utility.yul\":4072:4073   */\n      dup2\n        /* \"#utility.yul\":4068:4078   */\n      add\n        /* \"#utility.yul\":4063:4078   */\n      swap1\n      pop\n        /* \"#utility.yul\":4039:4152   */\n      jump(tag_232)\n    tag_234:\n        /* \"#utility.yul\":4186:4187   */\n      0x00\n        /* \"#utility.yul\":4177:4183   */\n      dup5\n        /* \"#utility.yul\":4172:4175   */\n      dup5\n        /* \"#utility.yul\":4168:4184   */\n      add\n        /* \"#utility.yul\":4161:4188   */\n      mstore\n        /* \"#utility.yul\":4010:4194   */\n      pop\n        /* \"#utility.yul\":3948:4194   */\n      pop\n      pop\n      pop\n      jump\t// out\n        /* \"#utility.yul\":4200:4302   */\n    tag_143:\n        /* \"#utility.yul\":4241:4247   */\n      0x00\n        /* \"#utility.yul\":4292:4294   */\n      0x1f\n        /* \"#utility.yul\":4288:4295   */\n      not\n        /* \"#utility.yul\":4283:4285   */\n      0x1f\n        /* \"#utility.yul\":4276:4281   */\n      dup4\n        /* \"#utility.yul\":4272:4286   */\n      add\n        /* \"#utility.yul\":4268:4296   */\n      and\n        /* \"#utility.yul\":4258:4296   */\n      swap1\n      pop\n        /* \"#utility.yul\":4200:4302   */\n      swap2\n      swap1\n      pop\n      jump\t// out\n        /* \"#utility.yul\":4308:4685   */\n    tag_144:\n        /* \"#utility.yul\":4396:4399   */\n      0x00\n        /* \"#utility.yul\":4424:4463   */\n      tag_237\n        /* \"#utility.yul\":4457:4462   */\n      dup3\n        /* \"#utility.yul\":4424:4463   */\n      tag_140\n      jump\t// in\n    tag_237:\n        /* \"#utility.yul\":4479:4550   */\n      tag_238\n        /* \"#utility.yul\":4543:4549   */\n      dup2\n        /* \"#utility.yul\":4538:4541   */\n      dup6\n        /* \"#utility.yul\":4479:4550   */\n      tag_141\n      jump\t// in\n    tag_238:\n        /* \"#utility.yul\":4472:4550   */\n      swap4\n      pop\n        /* \"#utility.yul\":4559:4624   */\n      tag_239\n        /* \"#utility.yul\":4617:4623   */\n      dup2\n        /* \"#utility.yul\":4612:4615   */\n      dup6\n        /* \"#utility.yul\":4605:4609   */\n      0x20\n        /* \"#utility.yul\":4598:4603   */\n      dup7\n        /* \"#utility.yul\":4594:4610   */\n      add\n        /* \"#utility.yul\":4559:4624   */\n      tag_142\n      jump\t// in\n    tag_239:\n        /* \"#utility.yul\":4649:4678   */\n      tag_240\n        /* \"#utility.yul\":4671:4677   */\n      dup2\n        /* \"#utility.yul\":4649:4678   */\n      tag_143\n      jump\t// in\n    tag_240:\n        /* \"#utility.yul\":4644:4647   */\n      dup5\n        /* \"#utility.yul\":4640:4679   */\n      add\n        /* \"#utility.yul\":4633:4679   */\n      swap2\n      pop\n        /* \"#utility.yul\":4400:4685   */\n      pop\n        /* \"#utility.yul\":4308:4685   */\n      swap3\n      swap2\n      pop\n      pop\n      jump\t// out\n        /* \"#utility.yul\":4691:4795   */\n    tag_145:\n        /* \"#utility.yul\":4736:4743   */\n      0x00\n        /* \"#utility.yul\":4765:4789   */\n      tag_242\n        /* \"#utility.yul\":4783:4788   */\n      dup3\n        /* \"#utility.yul\":4765:4789   */\n      tag_132\n      jump\t// in\n    tag_242:\n        /* \"#utility.yul\":4754:4789   */\n      swap1\n      pop\n        /* \"#utility.yul\":4691:4795   */\n      swap2\n      swap1\n      pop\n      jump\t// out\n        /* \"#utility.yul\":4801:4943   */\n    tag_146:\n        /* \"#utility.yul\":4904:4936   */\n      tag_244\n        /* \"#utility.yul\":4930:4935   */\n      dup2\n        /* \"#utility.yul\":4904:4936   */\n      tag_145\n      jump\t// in\n    tag_244:\n        /* \"#utility.yul\":4899:4902   */\n      dup3\n        /* \"#utility.yul\":4892:4937   */\n      mstore\n        /* \"#utility.yul\":4801:4943   */\n      pop\n      pop\n      jump\t// out\n        /* \"#utility.yul\":4949:5724   */\n    tag_51:\n        /* \"#utility.yul\":5184:5188   */\n      0x00\n        /* \"#utility.yul\":5222:5225   */\n      0xa0\n        /* \"#utility.yul\":5211:5220   */\n      dup3\n        /* \"#utility.yul\":5207:5226   */\n      add\n        /* \"#utility.yul\":5199:5226   */\n      swap1\n      pop\n        /* \"#utility.yul\":5272:5281   */\n      dup2\n        /* \"#utility.yul\":5266:5270   */\n      dup2\n        /* \"#utility.yul\":5262:5282   */\n      sub\n        /* \"#utility.yul\":5258:5259   */\n      0x00\n        /* \"#utility.yul\":5247:5256   */\n      dup4\n        /* \"#utility.yul\":5243:5260   */\n      add\n        /* \"#utility.yul\":5236:5283   */\n      mstore\n        /* \"#utility.yul\":5300:5378   */\n      tag_246\n        /* \"#utility.yul\":5373:5377   */\n      dup2\n        /* \"#utility.yul\":5364:5370   */\n      dup9\n        /* \"#utility.yul\":5300:5378   */\n      tag_144\n      jump\t// in\n    tag_246:\n        /* \"#utility.yul\":5292:5378   */\n      swap1\n      pop\n        /* \"#utility.yul\":5388:5460   */\n      tag_247\n        /* \"#utility.yul\":5456:5458   */\n      0x20\n        /* \"#utility.yul\":5445:5454   */\n      dup4\n        /* \"#utility.yul\":5441:5459   */\n      add\n        /* \"#utility.yul\":5432:5438   */\n      dup8\n        /* \"#utility.yul\":5388:5460   */\n      tag_138\n      jump\t// in\n    tag_247:\n        /* \"#utility.yul\":5470:5558   */\n      tag_248\n        /* \"#utility.yul\":5554:5556   */\n      0x40\n        /* \"#utility.yul\":5543:5552   */\n      dup4\n        /* \"#utility.yul\":5539:5557   */\n      add\n        /* \"#utility.yul\":5530:5536   */\n      dup7\n        /* \"#utility.yul\":5470:5558   */\n      tag_146\n      jump\t// in\n    tag_248:\n        /* \"#utility.yul\":5568:5634   */\n      tag_249\n        /* \"#utility.yul\":5630:5632   */\n      0x60\n        /* \"#utility.yul\":5619:5628   */\n      dup4\n        /* \"#utility.yul\":5615:5633   */\n      add\n        /* \"#utility.yul\":5606:5612   */\n      dup6\n        /* \"#utility.yul\":5568:5634   */\n      tag_137\n      jump\t// in\n    tag_249:\n        /* \"#utility.yul\":5644:5717   */\n      tag_250\n        /* \"#utility.yul\":5712:5715   */\n      0x80\n        /* \"#utility.yul\":5701:5710   */\n      dup4\n        /* \"#utility.yul\":5697:5716   */\n      add\n        /* \"#utility.yul\":5688:5694   */\n      dup5\n        /* \"#utility.yul\":5644:5717   */\n      tag_138\n      jump\t// in\n    tag_250:\n        /* \"#utility.yul\":4949:5724   */\n      swap7\n      swap6\n      pop\n      pop\n      pop\n      pop\n      pop\n      pop\n      jump\t// out\n        /* \"#utility.yul\":5730:5847   */\n    tag_147:\n        /* \"#utility.yul\":5839:5840   */\n      0x00\n        /* \"#utility.yul\":5836:5837   */\n      dup1\n        /* \"#utility.yul\":5829:5841   */\n      revert\n        /* \"#utility.yul\":5853:5970   */\n    tag_148:\n        /* \"#utility.yul\":5962:5963   */\n      0x00\n        /* \"#utility.yul\":5959:5960   */\n      dup1\n        /* \"#utility.yul\":5952:5964   */\n      revert\n        /* \"#utility.yul\":5976:6156   */\n    tag_149:\n        /* \"#utility.yul\":6024:6101   */\n      0x4e487b7100000000000000000000000000000000000000000000000000000000\n        /* \"#utility.yul\":6021:6022   */\n      0x00\n        /* \"#utility.yul\":6014:6102   */\n      mstore\n        /* \"#utility.yul\":6121:6125   */\n      0x41\n        /* \"#utility.yul\":6118:6119   */\n      0x04\n        /* \"#utility.yul\":6111:6126   */\n      mstore\n        /* \"#utility.yul\":6145:6149   */\n      0x24\n        /* \"#utility.yul\":6142:6143   */\n      0x00\n        /* \"#utility.yul\":6135:6150   */\n      revert\n        /* \"#utility.yul\":6162:6443   */\n    tag_150:\n        /* \"#utility.yul\":6245:6272   */\n      tag_255\n        /* \"#utility.yul\":6267:6271   */\n      dup3\n        /* \"#utility.yul\":6245:6272   */\n      tag_143\n      jump\t// in\n    tag_255:\n        /* \"#utility.yul\":6237:6243   */\n      dup2\n        /* \"#utility.yul\":6233:6273   */\n      add\n        /* \"#utility.yul\":6375:6381   */\n      dup2\n        /* \"#utility.yul\":6363:6373   */\n      dup2\n        /* \"#utility.yul\":6360:6382   */\n      lt\n        /* \"#utility.yul\":6339:6357   */\n      0xffffffffffffffff\n        /* \"#utility.yul\":6327:6337   */\n      dup3\n        /* \"#utility.yul\":6324:6358   */\n      gt\n        /* \"#utility.yul\":6321:6383   */\n      or\n        /* \"#utility.yul\":6318:6406   */\n      iszero\n      tag_256\n      jumpi\n        /* \"#utility.yul\":6386:6404   */\n      tag_257\n      tag_149\n      jump\t// in\n    tag_257:\n        /* \"#utility.yul\":6318:6406   */\n    tag_256:\n        /* \"#utility.yul\":6426:6436   */\n      dup1\n        /* \"#utility.yul\":6422:6424   */\n      0x40\n        /* \"#utility.yul\":6415:6437   */\n      mstore\n        /* \"#utility.yul\":6205:6443   */\n      pop\n        /* \"#utility.yul\":6162:6443   */\n      pop\n      pop\n      jump\t// out\n        /* \"#utility.yul\":6449:6578   */\n    tag_151:\n        /* \"#utility.yul\":6483:6489   */\n      0x00\n        /* \"#utility.yul\":6510:6530   */\n      tag_259\n      tag_126\n      jump\t// in\n    tag_259:\n        /* \"#utility.yul\":6500:6530   */\n      swap1\n      pop\n        /* \"#utility.yul\":6539:6572   */\n      tag_260\n        /* \"#utility.yul\":6567:6571   */\n      dup3\n        /* \"#utility.yul\":6559:6565   */\n      dup3\n        /* \"#utility.yul\":6539:6572   */\n      tag_150\n      jump\t// in\n    tag_260:\n        /* \"#utility.yul\":6449:6578   */\n      swap2\n      swap1\n      pop\n      jump\t// out\n        /* \"#utility.yul\":6584:6892   */\n    tag_152:\n        /* \"#utility.yul\":6646:6650   */\n      0x00\n        /* \"#utility.yul\":6736:6754   */\n      0xffffffffffffffff\n        /* \"#utility.yul\":6728:6734   */\n      dup3\n        /* \"#utility.yul\":6725:6755   */\n      gt\n        /* \"#utility.yul\":6722:6778   */\n      iszero\n      tag_262\n      jumpi\n        /* \"#utility.yul\":6758:6776   */\n      tag_263\n      tag_149\n      jump\t// in\n    tag_263:\n        /* \"#utility.yul\":6722:6778   */\n    tag_262:\n        /* \"#utility.yul\":6796:6825   */\n      tag_264\n        /* \"#utility.yul\":6818:6824   */\n      dup3\n        /* \"#utility.yul\":6796:6825   */\n      tag_143\n      jump\t// in\n    tag_264:\n        /* \"#utility.yul\":6788:6825   */\n      swap1\n      pop\n        /* \"#utility.yul\":6880:6884   */\n      0x20\n        /* \"#utility.yul\":6874:6878   */\n      dup2\n        /* \"#utility.yul\":6870:6885   */\n      add\n        /* \"#utility.yul\":6862:6885   */\n      swap1\n      pop\n        /* \"#utility.yul\":6584:6892   */\n      swap2\n      swap1\n      pop\n      jump\t// out\n        /* \"#utility.yul\":6898:7044   */\n    tag_153:\n        /* \"#utility.yul\":6995:7001   */\n      dup3\n        /* \"#utility.yul\":6990:6993   */\n      dup2\n        /* \"#utility.yul\":6985:6988   */\n      dup4\n        /* \"#utility.yul\":6972:7002   */\n      calldatacopy\n        /* \"#utility.yul\":7036:7037   */\n      0x00\n        /* \"#utility.yul\":7027:7033   */\n      dup4\n        /* \"#utility.yul\":7022:7025   */\n      dup4\n        /* \"#utility.yul\":7018:7034   */\n      add\n        /* \"#utility.yul\":7011:7038   */\n      mstore\n        /* \"#utility.yul\":6898:7044   */\n      pop\n      pop\n      pop\n      jump\t// out\n        /* \"#utility.yul\":7050:7475   */\n    tag_154:\n        /* \"#utility.yul\":7128:7133   */\n      0x00\n        /* \"#utility.yul\":7153:7219   */\n      tag_267\n        /* \"#utility.yul\":7169:7218   */\n      tag_268\n        /* \"#utility.yul\":7211:7217   */\n      dup5\n        /* \"#utility.yul\":7169:7218   */\n      tag_152\n      jump\t// in\n    tag_268:\n        /* \"#utility.yul\":7153:7219   */\n      tag_151\n      jump\t// in\n    tag_267:\n        /* \"#utility.yul\":7144:7219   */\n      swap1\n      pop\n        /* \"#utility.yul\":7242:7248   */\n      dup3\n        /* \"#utility.yul\":7235:7240   */\n      dup2\n        /* \"#utility.yul\":7228:7249   */\n      mstore\n        /* \"#utility.yul\":7280:7284   */\n      0x20\n        /* \"#utility.yul\":7273:7278   */\n      dup2\n        /* \"#utility.yul\":7269:7285   */\n      add\n        /* \"#utility.yul\":7318:7321   */\n      dup5\n        /* \"#utility.yul\":7309:7315   */\n      dup5\n        /* \"#utility.yul\":7304:7307   */\n      dup5\n        /* \"#utility.yul\":7300:7316   */\n      add\n        /* \"#utility.yul\":7297:7322   */\n      gt\n        /* \"#utility.yul\":7294:7406   */\n      iszero\n      tag_269\n      jumpi\n        /* \"#utility.yul\":7325:7404   */\n      tag_270\n      tag_148\n      jump\t// in\n    tag_270:\n        /* \"#utility.yul\":7294:7406   */\n    tag_269:\n        /* \"#utility.yul\":7415:7469   */\n      tag_271\n        /* \"#utility.yul\":7462:7468   */\n      dup5\n        /* \"#utility.yul\":7457:7460   */\n      dup3\n        /* \"#utility.yul\":7452:7455   */\n      dup6\n        /* \"#utility.yul\":7415:7469   */\n      tag_153\n      jump\t// in\n    tag_271:\n        /* \"#utility.yul\":7134:7475   */\n      pop\n        /* \"#utility.yul\":7050:7475   */\n      swap4\n      swap3\n      pop\n      pop\n      pop\n      jump\t// out\n        /* \"#utility.yul\":7495:7835   */\n    tag_155:\n        /* \"#utility.yul\":7551:7556   */\n      0x00\n        /* \"#utility.yul\":7600:7603   */\n      dup3\n        /* \"#utility.yul\":7593:7597   */\n      0x1f\n        /* \"#utility.yul\":7585:7591   */\n      dup4\n        /* \"#utility.yul\":7581:7598   */\n      add\n        /* \"#utility.yul\":7577:7604   */\n      slt\n        /* \"#utility.yul\":7567:7689   */\n      tag_273\n      jumpi\n        /* \"#utility.yul\":7608:7687   */\n      tag_274\n      tag_147\n      jump\t// in\n    tag_274:\n        /* \"#utility.yul\":7567:7689   */\n    tag_273:\n        /* \"#utility.yul\":7725:7731   */\n      dup2\n        /* \"#utility.yul\":7712:7732   */\n      calldataload\n        /* \"#utility.yul\":7750:7829   */\n      tag_275\n        /* \"#utility.yul\":7825:7828   */\n      dup5\n        /* \"#utility.yul\":7817:7823   */\n      dup3\n        /* \"#utility.yul\":7810:7814   */\n      0x20\n        /* \"#utility.yul\":7802:7808   */\n      dup7\n        /* \"#utility.yul\":7798:7815   */\n      add\n        /* \"#utility.yul\":7750:7829   */\n      tag_154\n      jump\t// in\n    tag_275:\n        /* \"#utility.yul\":7741:7829   */\n      swap2\n      pop\n        /* \"#utility.yul\":7557:7835   */\n      pop\n        /* \"#utility.yul\":7495:7835   */\n      swap3\n      swap2\n      pop\n      pop\n      jump\t// out\n        /* \"#utility.yul\":7841:8640   */\n    tag_59:\n        /* \"#utility.yul\":7928:7934   */\n      0x00\n        /* \"#utility.yul\":7936:7942   */\n      dup1\n        /* \"#utility.yul\":7944:7950   */\n      0x00\n        /* \"#utility.yul\":7993:7995   */\n      0x60\n        /* \"#utility.yul\":7981:7990   */\n      dup5\n        /* \"#utility.yul\":7972:7979   */\n      dup7\n        /* \"#utility.yul\":7968:7991   */\n      sub\n        /* \"#utility.yul\":7964:7996   */\n      slt\n        /* \"#utility.yul\":7961:8080   */\n      iszero\n      tag_277\n      jumpi\n        /* \"#utility.yul\":7999:8078   */\n      tag_278\n      tag_127\n      jump\t// in\n    tag_278:\n        /* \"#utility.yul\":7961:8080   */\n    tag_277:\n        /* \"#utility.yul\":8147:8148   */\n      0x00\n        /* \"#utility.yul\":8136:8145   */\n      dup5\n        /* \"#utility.yul\":8132:8149   */\n      add\n        /* \"#utility.yul\":8119:8150   */\n      calldataload\n        /* \"#utility.yul\":8177:8195   */\n      0xffffffffffffffff\n        /* \"#utility.yul\":8169:8175   */\n      dup2\n        /* \"#utility.yul\":8166:8196   */\n      gt\n        /* \"#utility.yul\":8163:8280   */\n      iszero\n      tag_279\n      jumpi\n        /* \"#utility.yul\":8199:8278   */\n      tag_280\n      tag_128\n      jump\t// in\n    tag_280:\n        /* \"#utility.yul\":8163:8280   */\n    tag_279:\n        /* \"#utility.yul\":8304:8367   */\n      tag_281\n        /* \"#utility.yul\":8359:8366   */\n      dup7\n        /* \"#utility.yul\":8350:8356   */\n      dup3\n        /* \"#utility.yul\":8339:8348   */\n      dup8\n        /* \"#utility.yul\":8335:8357   */\n      add\n        /* \"#utility.yul\":8304:8367   */\n      tag_155\n      jump\t// in\n    tag_281:\n        /* \"#utility.yul\":8294:8367   */\n      swap4\n      pop\n        /* \"#utility.yul\":8090:8377   */\n      pop\n        /* \"#utility.yul\":8416:8418   */\n      0x20\n        /* \"#utility.yul\":8442:8495   */\n      tag_282\n        /* \"#utility.yul\":8487:8494   */\n      dup7\n        /* \"#utility.yul\":8478:8484   */\n      dup3\n        /* \"#utility.yul\":8467:8476   */\n      dup8\n        /* \"#utility.yul\":8463:8485   */\n      add\n        /* \"#utility.yul\":8442:8495   */\n      tag_131\n      jump\t// in\n    tag_282:\n        /* \"#utility.yul\":8432:8495   */\n      swap3\n      pop\n        /* \"#utility.yul\":8387:8505   */\n      pop\n        /* \"#utility.yul\":8544:8546   */\n      0x40\n        /* \"#utility.yul\":8570:8623   */\n      tag_283\n        /* \"#utility.yul\":8615:8622   */\n      dup7\n        /* \"#utility.yul\":8606:8612   */\n      dup3\n        /* \"#utility.yul\":8595:8604   */\n      dup8\n        /* \"#utility.yul\":8591:8613   */\n      add\n        /* \"#utility.yul\":8570:8623   */\n      tag_135\n      jump\t// in\n    tag_283:\n        /* \"#utility.yul\":8560:8623   */\n      swap2\n      pop\n        /* \"#utility.yul\":8515:8633   */\n      pop\n        /* \"#utility.yul\":7841:8640   */\n      swap3\n      pop\n      swap3\n      pop\n      swap3\n      jump\t// out\n        /* \"#utility.yul\":8646:8877   */\n    tag_156:\n        /* \"#utility.yul\":8786:8820   */\n      0x4f6e6c7920746865206d616e616765722063616e2061636365737320746f2074\n        /* \"#utility.yul\":8782:8783   */\n      0x00\n        /* \"#utility.yul\":8774:8780   */\n      dup3\n        /* \"#utility.yul\":8770:8784   */\n      add\n        /* \"#utility.yul\":8763:8821   */\n      mstore\n        /* \"#utility.yul\":8855:8869   */\n      0x6869732066756e6374696f6e0000000000000000000000000000000000000000\n        /* \"#utility.yul\":8850:8852   */\n      0x20\n        /* \"#utility.yul\":8842:8848   */\n      dup3\n        /* \"#utility.yul\":8838:8853   */\n      add\n        /* \"#utility.yul\":8831:8870   */\n      mstore\n        /* \"#utility.yul\":8646:8877   */\n      pop\n      jump\t// out\n        /* \"#utility.yul\":8883:9249   */\n    tag_157:\n        /* \"#utility.yul\":9025:9028   */\n      0x00\n        /* \"#utility.yul\":9046:9113   */\n      tag_286\n        /* \"#utility.yul\":9110:9112   */\n      0x2c\n        /* \"#utility.yul\":9105:9108   */\n      dup4\n        /* \"#utility.yul\":9046:9113   */\n      tag_141\n      jump\t// in\n    tag_286:\n        /* \"#utility.yul\":9039:9113   */\n      swap2\n      pop\n        /* \"#utility.yul\":9122:9215   */\n      tag_287\n        /* \"#utility.yul\":9211:9214   */\n      dup3\n        /* \"#utility.yul\":9122:9215   */\n      tag_156\n      jump\t// in\n    tag_287:\n        /* \"#utility.yul\":9240:9242   */\n      0x40\n        /* \"#utility.yul\":9235:9238   */\n      dup3\n        /* \"#utility.yul\":9231:9243   */\n      add\n        /* \"#utility.yul\":9224:9243   */\n      swap1\n      pop\n        /* \"#utility.yul\":8883:9249   */\n      swap2\n      swap1\n      pop\n      jump\t// out\n        /* \"#utility.yul\":9255:9674   */\n    tag_74:\n        /* \"#utility.yul\":9421:9425   */\n      0x00\n        /* \"#utility.yul\":9459:9461   */\n      0x20\n        /* \"#utility.yul\":9448:9457   */\n      dup3\n        /* \"#utility.yul\":9444:9462   */\n      add\n        /* \"#utility.yul\":9436:9462   */\n      swap1\n      pop\n        /* \"#utility.yul\":9508:9517   */\n      dup2\n        /* \"#utility.yul\":9502:9506   */\n      dup2\n        /* \"#utility.yul\":9498:9518   */\n      sub\n        /* \"#utility.yul\":9494:9495   */\n      0x00\n        /* \"#utility.yul\":9483:9492   */\n      dup4\n        /* \"#utility.yul\":9479:9496   */\n      add\n        /* \"#utility.yul\":9472:9519   */\n      mstore\n        /* \"#utility.yul\":9536:9667   */\n      tag_289\n        /* \"#utility.yul\":9662:9666   */\n      dup2\n        /* \"#utility.yul\":9536:9667   */\n      tag_157\n      jump\t// in\n    tag_289:\n        /* \"#utility.yul\":9528:9667   */\n      swap1\n      pop\n        /* \"#utility.yul\":9255:9674   */\n      swap2\n      swap1\n      pop\n      jump\t// out\n        /* \"#utility.yul\":9680:9860   */\n    tag_78:\n        /* \"#utility.yul\":9728:9805   */\n      0x4e487b7100000000000000000000000000000000000000000000000000000000\n        /* \"#utility.yul\":9725:9726   */\n      0x00\n        /* \"#utility.yul\":9718:9806   */\n      mstore\n        /* \"#utility.yul\":9825:9829   */\n      0x32\n        /* \"#utility.yul\":9822:9823   */\n      0x04\n        /* \"#utility.yul\":9815:9830   */\n      mstore\n        /* \"#utility.yul\":9849:9853   */\n      0x24\n        /* \"#utility.yul\":9846:9847   */\n      0x00\n        /* \"#utility.yul\":9839:9854   */\n      revert\n        /* \"#utility.yul\":9866:10044   */\n    tag_158:\n        /* \"#utility.yul\":10006:10036   */\n      0x5265717565737420697320616c726561647920636f6d706c6574656400000000\n        /* \"#utility.yul\":10002:10003   */\n      0x00\n        /* \"#utility.yul\":9994:10000   */\n      dup3\n        /* \"#utility.yul\":9990:10004   */\n      add\n        /* \"#utility.yul\":9983:10037   */\n      mstore\n        /* \"#utility.yul\":9866:10044   */\n      pop\n      jump\t// out\n        /* \"#utility.yul\":10050:10416   */\n    tag_159:\n        /* \"#utility.yul\":10192:10195   */\n      0x00\n        /* \"#utility.yul\":10213:10280   */\n      tag_293\n        /* \"#utility.yul\":10277:10279   */\n      0x1c\n        /* \"#utility.yul\":10272:10275   */\n      dup4\n        /* \"#utility.yul\":10213:10280   */\n      tag_141\n      jump\t// in\n    tag_293:\n        /* \"#utility.yul\":10206:10280   */\n      swap2\n      pop\n        /* \"#utility.yul\":10289:10382   */\n      tag_294\n        /* \"#utility.yul\":10378:10381   */\n      dup3\n        /* \"#utility.yul\":10289:10382   */\n      tag_158\n      jump\t// in\n    tag_294:\n        /* \"#utility.yul\":10407:10409   */\n      0x20\n        /* \"#utility.yul\":10402:10405   */\n      dup3\n        /* \"#utility.yul\":10398:10410   */\n      add\n        /* \"#utility.yul\":10391:10410   */\n      swap1\n      pop\n        /* \"#utility.yul\":10050:10416   */\n      swap2\n      swap1\n      pop\n      jump\t// out\n        /* \"#utility.yul\":10422:10841   */\n    tag_82:\n        /* \"#utility.yul\":10588:10592   */\n      0x00\n        /* \"#utility.yul\":10626:10628   */\n      0x20\n        /* \"#utility.yul\":10615:10624   */\n      dup3\n        /* \"#utility.yul\":10611:10629   */\n      add\n        /* \"#utility.yul\":10603:10629   */\n      swap1\n      pop\n        /* \"#utility.yul\":10675:10684   */\n      dup2\n        /* \"#utility.yul\":10669:10673   */\n      dup2\n        /* \"#utility.yul\":10665:10685   */\n      sub\n        /* \"#utility.yul\":10661:10662   */\n      0x00\n        /* \"#utility.yul\":10650:10659   */\n      dup4\n        /* \"#utility.yul\":10646:10663   */\n      add\n        /* \"#utility.yul\":10639:10686   */\n      mstore\n        /* \"#utility.yul\":10703:10834   */\n      tag_296\n        /* \"#utility.yul\":10829:10833   */\n      dup2\n        /* \"#utility.yul\":10703:10834   */\n      tag_159\n      jump\t// in\n    tag_296:\n        /* \"#utility.yul\":10695:10834   */\n      swap1\n      pop\n        /* \"#utility.yul\":10422:10841   */\n      swap2\n      swap1\n      pop\n      jump\t// out\n        /* \"#utility.yul\":10847:11027   */\n    tag_160:\n        /* \"#utility.yul\":10895:10972   */\n      0x4e487b7100000000000000000000000000000000000000000000000000000000\n        /* \"#utility.yul\":10892:10893   */\n      0x00\n        /* \"#utility.yul\":10885:10973   */\n      mstore\n        /* \"#utility.yul\":10992:10996   */\n      0x12\n        /* \"#utility.yul\":10989:10990   */\n      0x04\n        /* \"#utility.yul\":10982:10997   */\n      mstore\n        /* \"#utility.yul\":11016:11020   */\n      0x24\n        /* \"#utility.yul\":11013:11014   */\n      0x00\n        /* \"#utility.yul\":11006:11021   */\n      revert\n        /* \"#utility.yul\":11033:11213   */\n    tag_161:\n        /* \"#utility.yul\":11081:11158   */\n      0x4e487b7100000000000000000000000000000000000000000000000000000000\n        /* \"#utility.yul\":11078:11079   */\n      0x00\n        /* \"#utility.yul\":11071:11159   */\n      mstore\n        /* \"#utility.yul\":11178:11182   */\n      0x11\n        /* \"#utility.yul\":11175:11176   */\n      0x04\n        /* \"#utility.yul\":11168:11183   */\n      mstore\n        /* \"#utility.yul\":11202:11206   */\n      0x24\n        /* \"#utility.yul\":11199:11200   */\n      0x00\n        /* \"#utility.yul\":11192:11207   */\n      revert\n        /* \"#utility.yul\":11219:11404   */\n    tag_84:\n        /* \"#utility.yul\":11259:11260   */\n      0x00\n        /* \"#utility.yul\":11276:11296   */\n      tag_300\n        /* \"#utility.yul\":11294:11295   */\n      dup3\n        /* \"#utility.yul\":11276:11296   */\n      tag_129\n      jump\t// in\n    tag_300:\n        /* \"#utility.yul\":11271:11296   */\n      swap2\n      pop\n        /* \"#utility.yul\":11310:11330   */\n      tag_301\n        /* \"#utility.yul\":11328:11329   */\n      dup4\n        /* \"#utility.yul\":11310:11330   */\n      tag_129\n      jump\t// in\n    tag_301:\n        /* \"#utility.yul\":11305:11330   */\n      swap3\n      pop\n        /* \"#utility.yul\":11349:11350   */\n      dup3\n        /* \"#utility.yul\":11339:11374   */\n      tag_302\n      jumpi\n        /* \"#utility.yul\":11354:11372   */\n      tag_303\n      tag_160\n      jump\t// in\n    tag_303:\n        /* \"#utility.yul\":11339:11374   */\n    tag_302:\n        /* \"#utility.yul\":11396:11397   */\n      dup3\n        /* \"#utility.yul\":11393:11394   */\n      dup3\n        /* \"#utility.yul\":11389:11398   */\n      div\n        /* \"#utility.yul\":11384:11398   */\n      swap1\n      pop\n        /* \"#utility.yul\":11219:11404   */\n      swap3\n      swap2\n      pop\n      pop\n      jump\t// out\n        /* \"#utility.yul\":11410:11590   */\n    tag_162:\n        /* \"#utility.yul\":11458:11535   */\n      0x4e487b7100000000000000000000000000000000000000000000000000000000\n        /* \"#utility.yul\":11455:11456   */\n      0x00\n        /* \"#utility.yul\":11448:11536   */\n      mstore\n        /* \"#utility.yul\":11555:11559   */\n      0x22\n        /* \"#utility.yul\":11552:11553   */\n      0x04\n        /* \"#utility.yul\":11545:11560   */\n      mstore\n        /* \"#utility.yul\":11579:11583   */\n      0x24\n        /* \"#utility.yul\":11576:11577   */\n      0x00\n        /* \"#utility.yul\":11569:11584   */\n      revert\n        /* \"#utility.yul\":11596:11916   */\n    tag_97:\n        /* \"#utility.yul\":11640:11646   */\n      0x00\n        /* \"#utility.yul\":11677:11678   */\n      0x02\n        /* \"#utility.yul\":11671:11675   */\n      dup3\n        /* \"#utility.yul\":11667:11679   */\n      div\n        /* \"#utility.yul\":11657:11679   */\n      swap1\n      pop\n        /* \"#utility.yul\":11724:11725   */\n      0x01\n        /* \"#utility.yul\":11718:11722   */\n      dup3\n        /* \"#utility.yul\":11714:11726   */\n      and\n        /* \"#utility.yul\":11745:11763   */\n      dup1\n        /* \"#utility.yul\":11735:11816   */\n      tag_306\n      jumpi\n        /* \"#utility.yul\":11801:11805   */\n      0x7f\n        /* \"#utility.yul\":11793:11799   */\n      dup3\n        /* \"#utility.yul\":11789:11806   */\n      and\n        /* \"#utility.yul\":11779:11806   */\n      swap2\n      pop\n        /* \"#utility.yul\":11735:11816   */\n    tag_306:\n        /* \"#utility.yul\":11863:11865   */\n      0x20\n        /* \"#utility.yul\":11855:11861   */\n      dup3\n        /* \"#utility.yul\":11852:11866   */\n      lt\n        /* \"#utility.yul\":11832:11850   */\n      dup2\n        /* \"#utility.yul\":11829:11867   */\n      sub\n        /* \"#utility.yul\":11826:11910   */\n      tag_307\n      jumpi\n        /* \"#utility.yul\":11882:11900   */\n      tag_308\n      tag_162\n      jump\t// in\n    tag_308:\n        /* \"#utility.yul\":11826:11910   */\n    tag_307:\n        /* \"#utility.yul\":11647:11916   */\n      pop\n        /* \"#utility.yul\":11596:11916   */\n      swap2\n      swap1\n      pop\n      jump\t// out\n        /* \"#utility.yul\":11922:12063   */\n    tag_163:\n        /* \"#utility.yul\":11971:11975   */\n      0x00\n        /* \"#utility.yul\":11994:11997   */\n      dup2\n        /* \"#utility.yul\":11986:11997   */\n      swap1\n      pop\n        /* \"#utility.yul\":12017:12020   */\n      dup2\n        /* \"#utility.yul\":12014:12015   */\n      0x00\n        /* \"#utility.yul\":12007:12021   */\n      mstore\n        /* \"#utility.yul\":12051:12055   */\n      0x20\n        /* \"#utility.yul\":12048:12049   */\n      0x00\n        /* \"#utility.yul\":12038:12056   */\n      keccak256\n        /* \"#utility.yul\":12030:12056   */\n      swap1\n      pop\n        /* \"#utility.yul\":11922:12063   */\n      swap2\n      swap1\n      pop\n      jump\t// out\n        /* \"#utility.yul\":12069:12162   */\n    tag_164:\n        /* \"#utility.yul\":12106:12112   */\n      0x00\n        /* \"#utility.yul\":12153:12155   */\n      0x20\n        /* \"#utility.yul\":12148:12150   */\n      0x1f\n        /* \"#utility.yul\":12141:12146   */\n      dup4\n        /* \"#utility.yul\":12137:12151   */\n      add\n        /* \"#utility.yul\":12133:12156   */\n      div\n        /* \"#utility.yul\":12123:12156   */\n      swap1\n      pop\n        /* \"#utility.yul\":12069:12162   */\n      swap2\n      swap1\n      pop\n      jump\t// out\n        /* \"#utility.yul\":12168:12275   */\n    tag_165:\n        /* \"#utility.yul\":12212:12220   */\n      0x00\n        /* \"#utility.yul\":12262:12267   */\n      dup3\n        /* \"#utility.yul\":12256:12260   */\n      dup3\n        /* \"#utility.yul\":12252:12268   */\n      shl\n        /* \"#utility.yul\":12231:12268   */\n      swap1\n      pop\n        /* \"#utility.yul\":12168:12275   */\n      swap3\n      swap2\n      pop\n      pop\n      jump\t// out\n        /* \"#utility.yul\":12281:12674   */\n    tag_166:\n        /* \"#utility.yul\":12350:12356   */\n      0x00\n        /* \"#utility.yul\":12400:12401   */\n      0x08\n        /* \"#utility.yul\":12388:12398   */\n      dup4\n        /* \"#utility.yul\":12384:12402   */\n      mul\n        /* \"#utility.yul\":12423:12520   */\n      tag_313\n        /* \"#utility.yul\":12453:12519   */\n      0xffffffffffffffffffffffffffffffffffffffffffffffffffffffffffffffff\n        /* \"#utility.yul\":12442:12451   */\n      dup3\n        /* \"#utility.yul\":12423:12520   */\n      tag_165\n      jump\t// in\n    tag_313:\n        /* \"#utility.yul\":12541:12580   */\n      tag_314\n        /* \"#utility.yul\":12571:12579   */\n      dup7\n        /* \"#utility.yul\":12560:12569   */\n      dup4\n        /* \"#utility.yul\":12541:12580   */\n      tag_165\n      jump\t// in\n    tag_314:\n        /* \"#utility.yul\":12529:12580   */\n      swap6\n      pop\n        /* \"#utility.yul\":12613:12617   */\n      dup1\n        /* \"#utility.yul\":12609:12618   */\n      not\n        /* \"#utility.yul\":12602:12607   */\n      dup5\n        /* \"#utility.yul\":12598:12619   */\n      and\n        /* \"#utility.yul\":12589:12619   */\n      swap4\n      pop\n        /* \"#utility.yul\":12662:12666   */\n      dup1\n        /* \"#utility.yul\":12652:12660   */\n      dup7\n        /* \"#utility.yul\":12648:12667   */\n      and\n        /* \"#utility.yul\":12641:12646   */\n      dup5\n        /* \"#utility.yul\":12638:12668   */\n      or\n        /* \"#utility.yul\":12628:12668   */\n      swap3\n      pop\n        /* \"#utility.yul\":12357:12674   */\n      pop\n      pop\n        /* \"#utility.yul\":12281:12674   */\n      swap4\n      swap3\n      pop\n      pop\n      pop\n      jump\t// out\n        /* \"#utility.yul\":12680:12740   */\n    tag_167:\n        /* \"#utility.yul\":12708:12711   */\n      0x00\n        /* \"#utility.yul\":12729:12734   */\n      dup2\n        /* \"#utility.yul\":12722:12734   */\n      swap1\n      pop\n        /* \"#utility.yul\":12680:12740   */\n      swap2\n      swap1\n      pop\n      jump\t// out\n        /* \"#utility.yul\":12746:12888   */\n    tag_168:\n        /* \"#utility.yul\":12796:12805   */\n      0x00\n        /* \"#utility.yul\":12829:12882   */\n      tag_317\n        /* \"#utility.yul\":12847:12881   */\n      tag_318\n        /* \"#utility.yul\":12856:12880   */\n      tag_319\n        /* \"#utility.yul\":12874:12879   */\n      dup5\n        /* \"#utility.yul\":12856:12880   */\n      tag_129\n      jump\t// in\n    tag_319:\n        /* \"#utility.yul\":12847:12881   */\n      tag_167\n      jump\t// in\n    tag_318:\n        /* \"#utility.yul\":12829:12882   */\n      tag_129\n      jump\t// in\n    tag_317:\n        /* \"#utility.yul\":12816:12882   */\n      swap1\n      pop\n        /* \"#utility.yul\":12746:12888   */\n      swap2\n      swap1\n      pop\n      jump\t// out\n        /* \"#utility.yul\":12894:12969   */\n    tag_169:\n        /* \"#utility.yul\":12937:12940   */\n      0x00\n        /* \"#utility.yul\":12958:12963   */\n      dup2\n        /* \"#utility.yul\":12951:12963   */\n      swap1\n      pop\n        /* \"#utility.yul\":12894:12969   */\n      swap2\n      swap1\n      pop\n      jump\t// out\n        /* \"#utility.yul\":12975:13244   */\n    tag_170:\n        /* \"#utility.yul\":13085:13124   */\n      tag_322\n        /* \"#utility.yul\":13116:13123   */\n      dup4\n        /* \"#utility.yul\":13085:13124   */\n      tag_168\n      jump\t// in\n    tag_322:\n        /* \"#utility.yul\":13146:13237   */\n      tag_323\n        /* \"#utility.yul\":13195:13236   */\n      tag_324\n        /* \"#utility.yul\":13219:13235   */\n      dup3\n        /* \"#utility.yul\":13195:13236   */\n      tag_169\n      jump\t// in\n    tag_324:\n        /* \"#utility.yul\":13187:13193   */\n      dup5\n        /* \"#utility.yul\":13180:13184   */\n      dup5\n        /* \"#utility.yul\":13174:13185   */\n      sload\n        /* \"#utility.yul\":13146:13237   */\n      tag_166\n      jump\t// in\n    tag_323:\n        /* \"#utility.yul\":13140:13144   */\n      dup3\n        /* \"#utility.yul\":13133:13238   */\n      sstore\n        /* \"#utility.yul\":13051:13244   */\n      pop\n        /* \"#utility.yul\":12975:13244   */\n      pop\n      pop\n      pop\n      jump\t// out\n        /* \"#utility.yul\":13250:13323   */\n    tag_171:\n        /* \"#utility.yul\":13295:13298   */\n      0x00\n        /* \"#utility.yul\":13250:13323   */\n      swap1\n      jump\t// out\n        /* \"#utility.yul\":13329:13518   */\n    tag_172:\n        /* \"#utility.yul\":13406:13438   */\n      tag_327\n      tag_171\n      jump\t// in\n    tag_327:\n        /* \"#utility.yul\":13447:13512   */\n      tag_328\n        /* \"#utility.yul\":13505:13511   */\n      dup2\n        /* \"#utility.yul\":13497:13503   */\n      dup5\n        /* \"#utility.yul\":13491:13495   */\n      dup5\n        /* \"#utility.yul\":13447:13512   */\n      tag_170\n      jump\t// in\n    tag_328:\n        /* \"#utility.yul\":13382:13518   */\n      pop\n        /* \"#utility.yul\":13329:13518   */\n      pop\n      pop\n      jump\t// out\n        /* \"#utility.yul\":13524:13710   */\n    tag_173:\n        /* \"#utility.yul\":13584:13704   */\n    tag_330:\n        /* \"#utility.yul\":13601:13604   */\n      dup2\n        /* \"#utility.yul\":13594:13599   */\n      dup2\n        /* \"#utility.yul\":13591:13605   */\n      lt\n        /* \"#utility.yul\":13584:13704   */\n      iszero\n      tag_332\n      jumpi\n        /* \"#utility.yul\":13655:13694   */\n      tag_333\n        /* \"#utility.yul\":13692:13693   */\n      0x00\n        /* \"#utility.yul\":13685:13690   */\n      dup3\n        /* \"#utility.yul\":13655:13694   */\n      tag_172\n      jump\t// in\n    tag_333:\n        /* \"#utility.yul\":13628:13629   */\n      0x01\n        /* \"#utility.yul\":13621:13626   */\n      dup2\n        /* \"#utility.yul\":13617:13630   */\n      add\n        /* \"#utility.yul\":13608:13630   */\n      swap1\n      pop\n        /* \"#utility.yul\":13584:13704   */\n      jump(tag_330)\n    tag_332:\n        /* \"#utility.yul\":13524:13710   */\n      pop\n      pop\n      jump\t// out\n        /* \"#utility.yul\":13716:14259   */\n    tag_174:\n        /* \"#utility.yul\":13817:13819   */\n      0x1f\n        /* \"#utility.yul\":13812:13815   */\n      dup3\n        /* \"#utility.yul\":13809:13820   */\n      gt\n        /* \"#utility.yul\":13806:14252   */\n      iszero\n      tag_335\n      jumpi\n        /* \"#utility.yul\":13851:13889   */\n      tag_336\n        /* \"#utility.yul\":13883:13888   */\n      dup2\n        /* \"#utility.yul\":13851:13889   */\n      tag_163\n      jump\t// in\n    tag_336:\n        /* \"#utility.yul\":13935:13964   */\n      tag_337\n        /* \"#utility.yul\":13953:13963   */\n      dup5\n        /* \"#utility.yul\":13935:13964   */\n      tag_164\n      jump\t// in\n    tag_337:\n        /* \"#utility.yul\":13925:13933   */\n      dup2\n        /* \"#utility.yul\":13921:13965   */\n      add\n        /* \"#utility.yul\":14118:14120   */\n      0x20\n        /* \"#utility.yul\":14106:14116   */\n      dup6\n        /* \"#utility.yul\":14103:14121   */\n      lt\n        /* \"#utility.yul\":14100:14149   */\n      iszero\n      tag_338\n      jumpi\n        /* \"#utility.yul\":14139:14147   */\n      dup2\n        /* \"#utility.yul\":14124:14147   */\n      swap1\n      pop\n        /* \"#utility.yul\":14100:14149   */\n    tag_338:\n        /* \"#utility.yul\":14162:14242   */\n      tag_339\n        /* \"#utility.yul\":14218:14240   */\n      tag_340\n        /* \"#utility.yul\":14236:14239   */\n      dup6\n        /* \"#utility.yul\":14218:14240   */\n      tag_164\n      jump\t// in\n    tag_340:\n        /* \"#utility.yul\":14208:14216   */\n      dup4\n        /* \"#utility.yul\":14204:14241   */\n      add\n        /* \"#utility.yul\":14191:14202   */\n      dup3\n        /* \"#utility.yul\":14162:14242   */\n      tag_173\n      jump\t// in\n    tag_339:\n        /* \"#utility.yul\":13821:14252   */\n      pop\n      pop\n        /* \"#utility.yul\":13806:14252   */\n    tag_335:\n        /* \"#utility.yul\":13716:14259   */\n      pop\n      pop\n      pop\n      jump\t// out\n        /* \"#utility.yul\":14265:14382   */\n    tag_175:\n        /* \"#utility.yul\":14319:14327   */\n      0x00\n        /* \"#utility.yul\":14369:14374   */\n      dup3\n        /* \"#utility.yul\":14363:14367   */\n      dup3\n        /* \"#utility.yul\":14359:14375   */\n      shr\n        /* \"#utility.yul\":14338:14375   */\n      swap1\n      pop\n        /* \"#utility.yul\":14265:14382   */\n      swap3\n      swap2\n      pop\n      pop\n      jump\t// out\n        /* \"#utility.yul\":14388:14557   */\n    tag_176:\n        /* \"#utility.yul\":14432:14438   */\n      0x00\n        /* \"#utility.yul\":14465:14516   */\n      tag_343\n        /* \"#utility.yul\":14513:14514   */\n      0x00\n        /* \"#utility.yul\":14509:14515   */\n      not\n        /* \"#utility.yul\":14501:14506   */\n      dup5\n        /* \"#utility.yul\":14498:14499   */\n      0x08\n        /* \"#utility.yul\":14494:14507   */\n      mul\n        /* \"#utility.yul\":14465:14516   */\n      tag_175\n      jump\t// in\n    tag_343:\n        /* \"#utility.yul\":14461:14517   */\n      not\n        /* \"#utility.yul\":14546:14550   */\n      dup1\n        /* \"#utility.yul\":14540:14544   */\n      dup4\n        /* \"#utility.yul\":14536:14551   */\n      and\n        /* \"#utility.yul\":14526:14551   */\n      swap2\n      pop\n        /* \"#utility.yul\":14439:14557   */\n      pop\n        /* \"#utility.yul\":14388:14557   */\n      swap3\n      swap2\n      pop\n      pop\n      jump\t// out\n        /* \"#utility.yul\":14562:14857   */\n    tag_177:\n        /* \"#utility.yul\":14638:14642   */\n      0x00\n        /* \"#utility.yul\":14784:14813   */\n      tag_345\n        /* \"#utility.yul\":14809:14812   */\n      dup4\n        /* \"#utility.yul\":14803:14807   */\n      dup4\n        /* \"#utility.yul\":14784:14813   */\n      tag_176\n      jump\t// in\n    tag_345:\n        /* \"#utility.yul\":14776:14813   */\n      swap2\n      pop\n        /* \"#utility.yul\":14846:14849   */\n      dup3\n        /* \"#utility.yul\":14843:14844   */\n      0x02\n        /* \"#utility.yul\":14839:14850   */\n      mul\n        /* \"#utility.yul\":14833:14837   */\n      dup3\n        /* \"#utility.yul\":14830:14851   */\n      or\n        /* \"#utility.yul\":14822:14851   */\n      swap1\n      pop\n        /* \"#utility.yul\":14562:14857   */\n      swap3\n      swap2\n      pop\n      pop\n      jump\t// out\n        /* \"#utility.yul\":14862:16257   */\n    tag_108:\n        /* \"#utility.yul\":14979:15016   */\n      tag_347\n        /* \"#utility.yul\":15012:15015   */\n      dup3\n        /* \"#utility.yul\":14979:15016   */\n      tag_140\n      jump\t// in\n    tag_347:\n        /* \"#utility.yul\":15081:15099   */\n      0xffffffffffffffff\n        /* \"#utility.yul\":15073:15079   */\n      dup2\n        /* \"#utility.yul\":15070:15100   */\n      gt\n        /* \"#utility.yul\":15067:15123   */\n      iszero\n      tag_348\n      jumpi\n        /* \"#utility.yul\":15103:15121   */\n      tag_349\n      tag_149\n      jump\t// in\n    tag_349:\n        /* \"#utility.yul\":15067:15123   */\n    tag_348:\n        /* \"#utility.yul\":15147:15185   */\n      tag_350\n        /* \"#utility.yul\":15179:15183   */\n      dup3\n        /* \"#utility.yul\":15173:15184   */\n      sload\n        /* \"#utility.yul\":15147:15185   */\n      tag_97\n      jump\t// in\n    tag_350:\n        /* \"#utility.yul\":15232:15299   */\n      tag_351\n        /* \"#utility.yul\":15292:15298   */\n      dup3\n        /* \"#utility.yul\":15284:15290   */\n      dup3\n        /* \"#utility.yul\":15278:15282   */\n      dup6\n        /* \"#utility.yul\":15232:15299   */\n      tag_174\n      jump\t// in\n    tag_351:\n        /* \"#utility.yul\":15326:15327   */\n      0x00\n        /* \"#utility.yul\":15350:15354   */\n      0x20\n        /* \"#utility.yul\":15337:15354   */\n      swap1\n      pop\n        /* \"#utility.yul\":15382:15384   */\n      0x1f\n        /* \"#utility.yul\":15374:15380   */\n      dup4\n        /* \"#utility.yul\":15371:15385   */\n      gt\n        /* \"#utility.yul\":15399:15400   */\n      0x01\n        /* \"#utility.yul\":15394:16012   */\n      dup2\n      eq\n      tag_353\n      jumpi\n        /* \"#utility.yul\":16056:16057   */\n      0x00\n        /* \"#utility.yul\":16073:16079   */\n      dup5\n        /* \"#utility.yul\":16070:16147   */\n      iszero\n      tag_354\n      jumpi\n        /* \"#utility.yul\":16122:16131   */\n      dup3\n        /* \"#utility.yul\":16117:16120   */\n      dup8\n        /* \"#utility.yul\":16113:16132   */\n      add\n        /* \"#utility.yul\":16107:16133   */\n      mload\n        /* \"#utility.yul\":16098:16133   */\n      swap1\n      pop\n        /* \"#utility.yul\":16070:16147   */\n    tag_354:\n        /* \"#utility.yul\":16173:16240   */\n      tag_355\n        /* \"#utility.yul\":16233:16239   */\n      dup6\n        /* \"#utility.yul\":16226:16231   */\n      dup3\n        /* \"#utility.yul\":16173:16240   */\n      tag_177\n      jump\t// in\n    tag_355:\n        /* \"#utility.yul\":16167:16171   */\n      dup7\n        /* \"#utility.yul\":16160:16241   */\n      sstore\n        /* \"#utility.yul\":16029:16251   */\n      pop\n        /* \"#utility.yul\":15364:16251   */\n      jump(tag_352)\n        /* \"#utility.yul\":15394:16012   */\n    tag_353:\n        /* \"#utility.yul\":15446:15450   */\n      0x1f\n        /* \"#utility.yul\":15442:15451   */\n      not\n        /* \"#utility.yul\":15434:15440   */\n      dup5\n        /* \"#utility.yul\":15430:15452   */\n      and\n        /* \"#utility.yul\":15480:15517   */\n      tag_356\n        /* \"#utility.yul\":15512:15516   */\n      dup7\n        /* \"#utility.yul\":15480:15517   */\n      tag_163\n      jump\t// in\n    tag_356:\n        /* \"#utility.yul\":15539:15540   */\n      0x00\n        /* \"#utility.yul\":15553:15761   */\n    tag_357:\n        /* \"#utility.yul\":15567:15574   */\n      dup3\n        /* \"#utility.yul\":15564:15565   */\n      dup2\n        /* \"#utility.yul\":15561:15575   */\n      lt\n        /* \"#utility.yul\":15553:15761   */\n      iszero\n      tag_359\n      jumpi\n        /* \"#utility.yul\":15646:15655   */\n      dup5\n        /* \"#utility.yul\":15641:15644   */\n      dup10\n        /* \"#utility.yul\":15637:15656   */\n      add\n        /* \"#utility.yul\":15631:15657   */\n      mload\n        /* \"#utility.yul\":15623:15629   */\n      dup3\n        /* \"#utility.yul\":15616:15658   */\n      sstore\n        /* \"#utility.yul\":15697:15698   */\n      0x01\n        /* \"#utility.yul\":15689:15695   */\n      dup3\n        /* \"#utility.yul\":15685:15699   */\n      add\n        /* \"#utility.yul\":15675:15699   */\n      swap2\n      pop\n        /* \"#utility.yul\":15744:15746   */\n      0x20\n        /* \"#utility.yul\":15733:15742   */\n      dup6\n        /* \"#utility.yul\":15729:15747   */\n      add\n        /* \"#utility.yul\":15716:15747   */\n      swap5\n      pop\n        /* \"#utility.yul\":15590:15594   */\n      0x20\n        /* \"#utility.yul\":15587:15588   */\n      dup2\n        /* \"#utility.yul\":15583:15595   */\n      add\n        /* \"#utility.yul\":15578:15595   */\n      swap1\n      pop\n        /* \"#utility.yul\":15553:15761   */\n      jump(tag_357)\n    tag_359:\n        /* \"#utility.yul\":15789:15795   */\n      dup7\n        /* \"#utility.yul\":15780:15787   */\n      dup4\n        /* \"#utility.yul\":15777:15796   */\n      lt\n        /* \"#utility.yul\":15774:15953   */\n      iszero\n      tag_360\n      jumpi\n        /* \"#utility.yul\":15847:15856   */\n      dup5\n        /* \"#utility.yul\":15842:15845   */\n      dup10\n        /* \"#utility.yul\":15838:15857   */\n      add\n        /* \"#utility.yul\":15832:15858   */\n      mload\n        /* \"#utility.yul\":15890:15938   */\n      tag_361\n        /* \"#utility.yul\":15932:15936   */\n      0x1f\n        /* \"#utility.yul\":15924:15930   */\n      dup10\n        /* \"#utility.yul\":15920:15937   */\n      and\n        /* \"#utility.yul\":15909:15918   */\n      dup3\n        /* \"#utility.yul\":15890:15938   */\n      tag_176\n      jump\t// in\n    tag_361:\n        /* \"#utility.yul\":15882:15888   */\n      dup4\n        /* \"#utility.yul\":15875:15939   */\n      sstore\n        /* \"#utility.yul\":15797:15953   */\n      pop\n        /* \"#utility.yul\":15774:15953   */\n    tag_360:\n        /* \"#utility.yul\":15999:16000   */\n      0x01\n        /* \"#utility.yul\":15995:15996   */\n      0x02\n        /* \"#utility.yul\":15987:15993   */\n      dup9\n        /* \"#utility.yul\":15983:15997   */\n      mul\n        /* \"#utility.yul\":15979:16001   */\n      add\n        /* \"#utility.yul\":15973:15977   */\n      dup9\n        /* \"#utility.yul\":15966:16002   */\n      sstore\n        /* \"#utility.yul\":15401:16012   */\n      pop\n      pop\n      pop\n        /* \"#utility.yul\":15364:16251   */\n    tag_352:\n      pop\n        /* \"#utility.yul\":14954:16257   */\n      pop\n      pop\n      pop\n        /* \"#utility.yul\":14862:16257   */\n      pop\n      pop\n      jump\t// out\n        /* \"#utility.yul\":16263:16506   */\n    tag_178:\n        /* \"#utility.yul\":16403:16437   */\n      0x5468652076616c756520796f752070726f7669646564206973206c6573732074\n        /* \"#utility.yul\":16399:16400   */\n      0x00\n        /* \"#utility.yul\":16391:16397   */\n      dup3\n        /* \"#utility.yul\":16387:16401   */\n      add\n        /* \"#utility.yul\":16380:16438   */\n      mstore\n        /* \"#utility.yul\":16472:16498   */\n      0x68616e206d696e696d756d20636f6e747269627574696f6e0000000000000000\n        /* \"#utility.yul\":16467:16469   */\n      0x20\n        /* \"#utility.yul\":16459:16465   */\n      dup3\n        /* \"#utility.yul\":16455:16470   */\n      add\n        /* \"#utility.yul\":16448:16499   */\n      mstore\n        /* \"#utility.yul\":16263:16506   */\n      pop\n      jump\t// out\n        /* \"#utility.yul\":16512:16878   */\n    tag_179:\n        /* \"#utility.yul\":16654:16657   */\n      0x00\n        /* \"#utility.yul\":16675:16742   */\n      tag_364\n        /* \"#utility.yul\":16739:16741   */\n      0x38\n        /* \"#utility.yul\":16734:16737   */\n      dup4\n        /* \"#utility.yul\":16675:16742   */\n      tag_141\n      jump\t// in\n    tag_364:\n        /* \"#utility.yul\":16668:16742   */\n      swap2\n      pop\n        /* \"#utility.yul\":16751:16844   */\n      tag_365\n        /* \"#utility.yul\":16840:16843   */\n      dup3\n        /* \"#utility.yul\":16751:16844   */\n      tag_178\n      jump\t// in\n    tag_365:\n        /* \"#utility.yul\":16869:16871   */\n      0x40\n        /* \"#utility.yul\":16864:16867   */\n      dup3\n        /* \"#utility.yul\":16860:16872   */\n      add\n        /* \"#utility.yul\":16853:16872   */\n      swap1\n      pop\n        /* \"#utility.yul\":16512:16878   */\n      swap2\n      swap1\n      pop\n      jump\t// out\n        /* \"#utility.yul\":16884:17303   */\n    tag_112:\n        /* \"#utility.yul\":17050:17054   */\n      0x00\n        /* \"#utility.yul\":17088:17090   */\n      0x20\n        /* \"#utility.yul\":17077:17086   */\n      dup3\n        /* \"#utility.yul\":17073:17091   */\n      add\n        /* \"#utility.yul\":17065:17091   */\n      swap1\n      pop\n        /* \"#utility.yul\":17137:17146   */\n      dup2\n        /* \"#utility.yul\":17131:17135   */\n      dup2\n        /* \"#utility.yul\":17127:17147   */\n      sub\n        /* \"#utility.yul\":17123:17124   */\n      0x00\n        /* \"#utility.yul\":17112:17121   */\n      dup4\n        /* \"#utility.yul\":17108:17125   */\n      add\n        /* \"#utility.yul\":17101:17148   */\n      mstore\n        /* \"#utility.yul\":17165:17296   */\n      tag_367\n        /* \"#utility.yul\":17291:17295   */\n      dup2\n        /* \"#utility.yul\":17165:17296   */\n      tag_179\n      jump\t// in\n    tag_367:\n        /* \"#utility.yul\":17157:17296   */\n      swap1\n      pop\n        /* \"#utility.yul\":16884:17303   */\n      swap2\n      swap1\n      pop\n      jump\t// out\n        /* \"#utility.yul\":17309:17542   */\n    tag_114:\n        /* \"#utility.yul\":17348:17351   */\n      0x00\n        /* \"#utility.yul\":17371:17395   */\n      tag_369\n        /* \"#utility.yul\":17389:17394   */\n      dup3\n        /* \"#utility.yul\":17371:17395   */\n      tag_129\n      jump\t// in\n    tag_369:\n        /* \"#utility.yul\":17362:17395   */\n      swap2\n      pop\n        /* \"#utility.yul\":17417:17483   */\n      0xffffffffffffffffffffffffffffffffffffffffffffffffffffffffffffffff\n        /* \"#utility.yul\":17410:17415   */\n      dup3\n        /* \"#utility.yul\":17407:17484   */\n      sub\n        /* \"#utility.yul\":17404:17507   */\n      tag_370\n      jumpi\n        /* \"#utility.yul\":17487:17505   */\n      tag_371\n      tag_161\n      jump\t// in\n    tag_371:\n        /* \"#utility.yul\":17404:17507   */\n    tag_370:\n        /* \"#utility.yul\":17534:17535   */\n      0x01\n        /* \"#utility.yul\":17527:17532   */\n      dup3\n        /* \"#utility.yul\":17523:17536   */\n      add\n        /* \"#utility.yul\":17516:17536   */\n      swap1\n      pop\n        /* \"#utility.yul\":17309:17542   */\n      swap2\n      swap1\n      pop\n      jump\t// out\n        /* \"#utility.yul\":17548:17722   */\n    tag_180:\n        /* \"#utility.yul\":17688:17714   */\n      0x43616c6c6572206973206e6f74206120617070726f7665720000000000000000\n        /* \"#utility.yul\":17684:17685   */\n      0x00\n        /* \"#utility.yul\":17676:17682   */\n      dup3\n        /* \"#utility.yul\":17672:17686   */\n      add\n        /* \"#utility.yul\":17665:17715   */\n      mstore\n        /* \"#utility.yul\":17548:17722   */\n      pop\n      jump\t// out\n        /* \"#utility.yul\":17728:18094   */\n    tag_181:\n        /* \"#utility.yul\":17870:17873   */\n      0x00\n        /* \"#utility.yul\":17891:17958   */\n      tag_374\n        /* \"#utility.yul\":17955:17957   */\n      0x18\n        /* \"#utility.yul\":17950:17953   */\n      dup4\n        /* \"#utility.yul\":17891:17958   */\n      tag_141\n      jump\t// in\n    tag_374:\n        /* \"#utility.yul\":17884:17958   */\n      swap2\n      pop\n        /* \"#utility.yul\":17967:18060   */\n      tag_375\n        /* \"#utility.yul\":18056:18059   */\n      dup3\n        /* \"#utility.yul\":17967:18060   */\n      tag_180\n      jump\t// in\n    tag_375:\n        /* \"#utility.yul\":18085:18087   */\n      0x20\n        /* \"#utility.yul\":18080:18083   */\n      dup3\n        /* \"#utility.yul\":18076:18088   */\n      add\n        /* \"#utility.yul\":18069:18088   */\n      swap1\n      pop\n        /* \"#utility.yul\":17728:18094   */\n      swap2\n      swap1\n      pop\n      jump\t// out\n        /* \"#utility.yul\":18100:18519   */\n    tag_118:\n        /* \"#utility.yul\":18266:18270   */\n      0x00\n        /* \"#utility.yul\":18304:18306   */\n      0x20\n        /* \"#utility.yul\":18293:18302   */\n      dup3\n        /* \"#utility.yul\":18289:18307   */\n      add\n        /* \"#utility.yul\":18281:18307   */\n      swap1\n      pop\n        /* \"#utility.yul\":18353:18362   */\n      dup2\n        /* \"#utility.yul\":18347:18351   */\n      dup2\n        /* \"#utility.yul\":18343:18363   */\n      sub\n        /* \"#utility.yul\":18339:18340   */\n      0x00\n        /* \"#utility.yul\":18328:18337   */\n      dup4\n        /* \"#utility.yul\":18324:18341   */\n      add\n        /* \"#utility.yul\":18317:18364   */\n      mstore\n        /* \"#utility.yul\":18381:18512   */\n      tag_377\n        /* \"#utility.yul\":18507:18511   */\n      dup2\n        /* \"#utility.yul\":18381:18512   */\n      tag_181\n      jump\t// in\n    tag_377:\n        /* \"#utility.yul\":18373:18512   */\n      swap1\n      pop\n        /* \"#utility.yul\":18100:18519   */\n      swap2\n      swap1\n      pop\n      jump\t// out\n        /* \"#utility.yul\":18525:18752   */\n    tag_182:\n        /* \"#utility.yul\":18665:18699   */\n      0x43616c6c65722068617320616c726561647920617070726f7665642074686973\n        /* \"#utility.yul\":18661:18662   */\n      0x00\n        /* \"#utility.yul\":18653:18659   */\n      dup3\n        /* \"#utility.yul\":18649:18663   */\n      add\n        /* \"#utility.yul\":18642:18700   */\n      mstore\n        /* \"#utility.yul\":18734:18744   */\n      0x2072657175657374000000000000000000000000000000000000000000000000\n        /* \"#utility.yul\":18729:18731   */\n      0x20\n        /* \"#utility.yul\":18721:18727   */\n      dup3\n        /* \"#utility.yul\":18717:18732   */\n      add\n        /* \"#utility.yul\":18710:18745   */\n      mstore\n        /* \"#utility.yul\":18525:18752   */\n      pop\n      jump\t// out\n        /* \"#utility.yul\":18758:19124   */\n    tag_183:\n        /* \"#utility.yul\":18900:18903   */\n      0x00\n        /* \"#utility.yul\":18921:18988   */\n      tag_380\n        /* \"#utility.yul\":18985:18987   */\n      0x28\n        /* \"#utility.yul\":18980:18983   */\n      dup4\n        /* \"#utility.yul\":18921:18988   */\n      tag_141\n      jump\t// in\n    tag_380:\n        /* \"#utility.yul\":18914:18988   */\n      swap2\n      pop\n        /* \"#utility.yul\":18997:19090   */\n      tag_381\n        /* \"#utility.yul\":19086:19089   */\n      dup3\n        /* \"#utility.yul\":18997:19090   */\n      tag_182\n      jump\t// in\n    tag_381:\n        /* \"#utility.yul\":19115:19117   */\n      0x40\n        /* \"#utility.yul\":19110:19113   */\n      dup3\n        /* \"#utility.yul\":19106:19118   */\n      add\n        /* \"#utility.yul\":19099:19118   */\n      swap1\n      pop\n        /* \"#utility.yul\":18758:19124   */\n      swap2\n      swap1\n      pop\n      jump\t// out\n        /* \"#utility.yul\":19130:19549   */\n    tag_121:\n        /* \"#utility.yul\":19296:19300   */\n      0x00\n        /* \"#utility.yul\":19334:19336   */\n      0x20\n        /* \"#utility.yul\":19323:19332   */\n      dup3\n        /* \"#utility.yul\":19319:19337   */\n      add\n        /* \"#utility.yul\":19311:19337   */\n      swap1\n      pop\n        /* \"#utility.yul\":19383:19392   */\n      dup2\n        /* \"#utility.yul\":19377:19381   */\n      dup2\n        /* \"#utility.yul\":19373:19393   */\n      sub\n        /* \"#utility.yul\":19369:19370   */\n      0x00\n        /* \"#utility.yul\":19358:19367   */\n      dup4\n        /* \"#utility.yul\":19354:19371   */\n      add\n        /* \"#utility.yul\":19347:19394   */\n      mstore\n        /* \"#utility.yul\":19411:19542   */\n      tag_383\n        /* \"#utility.yul\":19537:19541   */\n      dup2\n        /* \"#utility.yul\":19411:19542   */\n      tag_183\n      jump\t// in\n    tag_383:\n        /* \"#utility.yul\":19403:19542   */\n      swap1\n      pop\n        /* \"#utility.yul\":19130:19549   */\n      swap2\n      swap1\n      pop\n      jump\t// out\n\n    auxdata: 0xa2646970667358221220b1e6d9175dad56943091264f8dd4a88cc0e79e4a56a44d87883c707038c9e38d64736f6c63430008140033\n}\n","bytecode":{"linkReferences":{},"object":"608060405234801562000010575f80fd5b50604051620016c4380380620016c4833981810160405281019062000036919062000121565b805f806101000a81548173ffffffffffffffffffffffffffffffffffffffff021916908373ffffffffffffffffffffffffffffffffffffffff16021790555081600181905550505062000166565b5f80fd5b5f819050919050565b6200009c8162000088565b8114620000a7575f80fd5b50565b5f81519050620000ba8162000091565b92915050565b5f73ffffffffffffffffffffffffffffffffffffffff82169050919050565b5f620000eb82620000c0565b9050919050565b620000fd81620000df565b811462000108575f80fd5b50565b5f815190506200011b81620000f2565b92915050565b5f80604083850312156200013a576200013962000084565b5b5f6200014985828601620000aa565b92505060206200015c858286016200010b565b9150509250929050565b61155080620001745f395ff3fe6080604052600436106100a6575f3560e01c806381d12c581161006357806381d12c58146101ba57806382fde093146101fa5780638a9cfd5514610224578063937e09b11461024c578063d7bb99ba14610276578063d7d1bbdb14610280576100a6565b806303441006146100aa5780630a144391146100d25780633410452a1461010e5780634051ddac14610138578063481c6a75146101665780636f9fb98a14610190575b5f80fd5b3480156100b5575f80fd5b506100d060048036038101906100cb9190610abb565b6102a8565b005b3480156100dd575f80fd5b506100f860048036038101906100f39190610b40565b610453565b6040516101059190610b85565b60405180910390f35b348015610119575f80fd5b50610122610470565b60405161012f9190610bad565b60405180910390f35b348015610143575f80fd5b5061014c61047c565b60405161015d959493929190610bd5565b60405180910390f35b348015610171575f80fd5b5061017a6104bf565b6040516101879190610c26565b60405180910390f35b34801561019b575f80fd5b506101a46104e2565b6040516101b19190610bad565b60405180910390f35b3480156101c5575f80fd5b506101e060048036038101906101db9190610abb565b610577565b6040516101f1959493929190610ce9565b60405180910390f35b348015610205575f80fd5b5061020e61066a565b60405161021b9190610bad565b60405180910390f35b34801561022f575f80fd5b5061024a60048036038101906102459190610e6d565b610670565b005b348015610257575f80fd5b506102606107fe565b60405161026d9190610bad565b60405180910390f35b61027e610804565b005b34801561028b575f80fd5b506102a660048036038101906102a19190610abb565b6108b6565b005b5f8054906101000a900473ffffffffffffffffffffffffffffffffffffffff1673ffffffffffffffffffffffffffffffffffffffff163373ffffffffffffffffffffffffffffffffffffffff1614610335576040517f08c379a000000000000000000000000000000000000000000000000000000000815260040161032c90610f49565b60405180910390fd5b5f6003828154811061034a57610349610f67565b5b905f5260205f20906004020190508060020160149054906101000a900460ff16156103aa576040517f08c379a00000000000000000000000000000000000000000000000000000000081526004016103a190610fde565b60405180910390fd5b60026005546103b99190611056565b8160030154116103c7575f80fd5b806002015f9054906101000a900473ffffffffffffffffffffffffffffffffffffffff1673ffffffffffffffffffffffffffffffffffffffff166108fc826001015490811502906040515f60405180830381858888f19350505050158015610431573d5f803e3d5ffd5b5060018160020160146101000a81548160ff0219169083151502179055505050565b6002602052805f5260405f205f915054906101000a900460ff1681565b5f600380549050905090565b5f805f805f600154476003805490506005545f8054906101000a900473ffffffffffffffffffffffffffffffffffffffff16945094509450945094509091929394565b5f8054906101000a900473ffffffffffffffffffffffffffffffffffffffff1681565b5f805f9054906101000a900473ffffffffffffffffffffffffffffffffffffffff1673ffffffffffffffffffffffffffffffffffffffff163373ffffffffffffffffffffffffffffffffffffffff1614610571576040517f08c379a000000000000000000000000000000000000000000000000000000000815260040161056890610f49565b60405180910390fd5b47905090565b60038181548110610586575f80fd5b905f5260205f2090600402015f91509050805f0180546105a5906110b3565b80601f01602080910402602001604051908101604052809291908181526020018280546105d1906110b3565b801561061c5780601f106105f35761010080835404028352916020019161061c565b820191905f5260205f20905b8154815290600101906020018083116105ff57829003601f168201915b505050505090806001015490806002015f9054906101000a900473ffffffffffffffffffffffffffffffffffffffff16908060020160149054906101000a900460ff16908060030154905085565b60055481565b5f8054906101000a900473ffffffffffffffffffffffffffffffffffffffff1673ffffffffffffffffffffffffffffffffffffffff163373ffffffffffffffffffffffffffffffffffffffff16146106fd576040517f08c379a00000000000000000000000000000000000000000000000000000000081526004016106f490610f49565b60405180910390fd5b5f6040518060a001604052808581526020018481526020018373ffffffffffffffffffffffffffffffffffffffff1681526020015f151581526020015f8152509050600381908060018154018082558091505060019003905f5260205f2090600402015f909190919091505f820151815f01908161077b9190611280565b50602082015181600101556040820151816002015f6101000a81548173ffffffffffffffffffffffffffffffffffffffff021916908373ffffffffffffffffffffffffffffffffffffffff16021790555060608201518160020160146101000a81548160ff02191690831515021790555060808201518160030155505050505050565b60015481565b6001543411610848576040517f08c379a000000000000000000000000000000000000000000000000000000000815260040161083f906113bf565b60405180910390fd5b600160025f3373ffffffffffffffffffffffffffffffffffffffff1673ffffffffffffffffffffffffffffffffffffffff1681526020019081526020015f205f6101000a81548160ff02191690831515021790555060055f8154809291906108af906113dd565b9190505550565b60025f3373ffffffffffffffffffffffffffffffffffffffff1673ffffffffffffffffffffffffffffffffffffffff1681526020019081526020015f205f9054906101000a900460ff1661093f576040517f08c379a00000000000000000000000000000000000000000000000000000000081526004016109369061146e565b60405180910390fd5b60045f8281526020019081526020015f205f3373ffffffffffffffffffffffffffffffffffffffff1673ffffffffffffffffffffffffffffffffffffffff1681526020019081526020015f205f9054906101000a900460ff16156109d8576040517f08c379a00000000000000000000000000000000000000000000000000000000081526004016109cf906114fc565b60405180910390fd5b600381815481106109ec576109eb610f67565b5b905f5260205f2090600402016003015f815480929190610a0b906113dd565b9190505550600160045f8381526020019081526020015f205f3373ffffffffffffffffffffffffffffffffffffffff1673ffffffffffffffffffffffffffffffffffffffff1681526020019081526020015f205f6101000a81548160ff02191690831515021790555050565b5f604051905090565b5f80fd5b5f80fd5b5f819050919050565b610a9a81610a88565b8114610aa4575f80fd5b50565b5f81359050610ab581610a91565b92915050565b5f60208284031215610ad057610acf610a80565b5b5f610add84828501610aa7565b91505092915050565b5f73ffffffffffffffffffffffffffffffffffffffff82169050919050565b5f610b0f82610ae6565b9050919050565b610b1f81610b05565b8114610b29575f80fd5b50565b5f81359050610b3a81610b16565b92915050565b5f60208284031215610b5557610b54610a80565b5b5f610b6284828501610b2c565b91505092915050565b5f8115159050919050565b610b7f81610b6b565b82525050565b5f602082019050610b985f830184610b76565b92915050565b610ba781610a88565b82525050565b5f602082019050610bc05f830184610b9e565b92915050565b610bcf81610b05565b82525050565b5f60a082019050610be85f830188610b9e565b610bf56020830187610b9e565b610c026040830186610b9e565b610c0f6060830185610b9e565b610c1c6080830184610bc6565b9695505050505050565b5f602082019050610c395f830184610bc6565b92915050565b5f81519050919050565b5f82825260208201905092915050565b5f5b83811015610c76578082015181840152602081019050610c5b565b5f8484015250505050565b5f601f19601f8301169050919050565b5f610c9b82610c3f565b610ca58185610c49565b9350610cb5818560208601610c59565b610cbe81610c81565b840191505092915050565b5f610cd382610ae6565b9050919050565b610ce381610cc9565b82525050565b5f60a0820190508181035f830152610d018188610c91565b9050610d106020830187610b9e565b610d1d6040830186610cda565b610d2a6060830185610b76565b610d376080830184610b9e565b9695505050505050565b5f80fd5b5f80fd5b7f4e487b71000000000000000000000000000000000000000000000000000000005f52604160045260245ffd5b610d7f82610c81565b810181811067ffffffffffffffff82111715610d9e57610d9d610d49565b5b80604052505050565b5f610db0610a77565b9050610dbc8282610d76565b919050565b5f67ffffffffffffffff821115610ddb57610dda610d49565b5b610de482610c81565b9050602081019050919050565b828183375f83830152505050565b5f610e11610e0c84610dc1565b610da7565b905082815260208101848484011115610e2d57610e2c610d45565b5b610e38848285610df1565b509392505050565b5f82601f830112610e5457610e53610d41565b5b8135610e64848260208601610dff565b91505092915050565b5f805f60608486031215610e8457610e83610a80565b5b5f84013567ffffffffffffffff811115610ea157610ea0610a84565b5b610ead86828701610e40565b9350506020610ebe86828701610aa7565b9250506040610ecf86828701610b2c565b9150509250925092565b7f4f6e6c7920746865206d616e616765722063616e2061636365737320746f20745f8201527f6869732066756e6374696f6e0000000000000000000000000000000000000000602082015250565b5f610f33602c83610c49565b9150610f3e82610ed9565b604082019050919050565b5f6020820190508181035f830152610f6081610f27565b9050919050565b7f4e487b71000000000000000000000000000000000000000000000000000000005f52603260045260245ffd5b7f5265717565737420697320616c726561647920636f6d706c65746564000000005f82015250565b5f610fc8601c83610c49565b9150610fd382610f94565b602082019050919050565b5f6020820190508181035f830152610ff581610fbc565b9050919050565b7f4e487b71000000000000000000000000000000000000000000000000000000005f52601260045260245ffd5b7f4e487b71000000000000000000000000000000000000000000000000000000005f52601160045260245ffd5b5f61106082610a88565b915061106b83610a88565b92508261107b5761107a610ffc565b5b828204905092915050565b7f4e487b71000000000000000000000000000000000000000000000000000000005f52602260045260245ffd5b5f60028204905060018216806110ca57607f821691505b6020821081036110dd576110dc611086565b5b50919050565b5f819050815f5260205f209050919050565b5f6020601f8301049050919050565b5f82821b905092915050565b5f6008830261113f7fffffffffffffffffffffffffffffffffffffffffffffffffffffffffffffffff82611104565b6111498683611104565b95508019841693508086168417925050509392505050565b5f819050919050565b5f61118461117f61117a84610a88565b611161565b610a88565b9050919050565b5f819050919050565b61119d8361116a565b6111b16111a98261118b565b848454611110565b825550505050565b5f90565b6111c56111b9565b6111d0818484611194565b505050565b5b818110156111f3576111e85f826111bd565b6001810190506111d6565b5050565b601f82111561123857611209816110e3565b611212846110f5565b81016020851015611221578190505b61123561122d856110f5565b8301826111d5565b50505b505050565b5f82821c905092915050565b5f6112585f198460080261123d565b1980831691505092915050565b5f6112708383611249565b9150826002028217905092915050565b61128982610c3f565b67ffffffffffffffff8111156112a2576112a1610d49565b5b6112ac82546110b3565b6112b78282856111f7565b5f60209050601f8311600181146112e8575f84156112d6578287015190505b6112e08582611265565b865550611347565b601f1984166112f6866110e3565b5f5b8281101561131d578489015182556001820191506020850194506020810190506112f8565b8683101561133a5784890151611336601f891682611249565b8355505b6001600288020188555050505b505050505050565b7f5468652076616c756520796f752070726f7669646564206973206c65737320745f8201527f68616e206d696e696d756d20636f6e747269627574696f6e0000000000000000602082015250565b5f6113a9603883610c49565b91506113b48261134f565b604082019050919050565b5f6020820190508181035f8301526113d68161139d565b9050919050565b5f6113e782610a88565b91507fffffffffffffffffffffffffffffffffffffffffffffffffffffffffffffffff820361141957611418611029565b5b600182019050919050565b7f43616c6c6572206973206e6f74206120617070726f76657200000000000000005f82015250565b5f611458601883610c49565b915061146382611424565b602082019050919050565b5f6020820190508181035f8301526114858161144c565b9050919050565b7f43616c6c65722068617320616c726561647920617070726f76656420746869735f8201527f2072657175657374000000000000000000000000000000000000000000000000602082015250565b5f6114e6602883610c49565b91506114f18261148c565b604082019050919050565b5f6020820190508181035f830152611513816114da565b905091905056fea2646970667358221220b1e6d9175dad56943091264f8dd4a88cc0e79e4a56a44d87883c707038c9e38d64736f6c63430008140033","opcodes":"PUSH1 0x80 PUSH1 0x40 MSTORE CALLVALUE DUP1 ISZERO PUSH3 0x10 JUMPI PUSH0 DUP1 REVERT JUMPDEST POP PUSH1 0x40 MLOAD PUSH3 0x16C4 CODESIZE SUB DUP1 PUSH3 0x16C4 DUP4 CODECOPY DUP2 DUP2 ADD PUSH1 0x40 MSTORE DUP2 ADD SWAP1 PUSH3 0x36 SWAP2 SWAP1 PUSH3 0x121 JUMP JUMPDEST DUP1 PUSH0 DUP1 PUSH2 0x100 EXP DUP2 SLOAD DUP2 PUSH20 0xFFFFFFFFFFFFFFFFFFFFFFFFFFFFFFFFFFFFFFFF MUL NOT AND SWAP1 DUP4 PUSH20 0xFFFFFFFFFFFFFFFFFFFFFFFFFFFFFFFFFFFFFFFF AND MUL OR SWAP1 SSTORE POP DUP2 PUSH1 0x1 DUP2 SWAP1 SSTORE POP POP POP PUSH3 0x166 JUMP JUMPDEST PUSH0 DUP1 REVERT JUMPDEST PUSH0 DUP2 SWAP1 POP SWAP2 SWAP1 POP JUMP JUMPDEST PUSH3 0x9C DUP2 PUSH3 0x88 JUMP JUMPDEST DUP2 EQ PUSH3 0xA7 JUMPI PUSH0 DUP1 REVERT JUMPDEST POP JUMP JUMPDEST PUSH0 DUP2 MLOAD SWAP1 POP PUSH3 0xBA DUP2 PUSH3 0x91 JUMP JUMPDEST SWAP3 SWAP2 POP POP JUMP JUMPDEST PUSH0 PUSH20 0xFFFFFFFFFFFFFFFFFFFFFFFFFFFFFFFFFFFFFFFF DUP3 AND SWAP1 POP SWAP2 SWAP1 POP JUMP JUMPDEST PUSH0 PUSH3 0xEB DUP3 PUSH3 0xC0 JUMP JUMPDEST SWAP1 POP SWAP2 SWAP1 POP JUMP JUMPDEST PUSH3 0xFD DUP2 PUSH3 0xDF JUMP JUMPDEST DUP2 EQ PUSH3 0x108 JUMPI PUSH0 DUP1 REVERT JUMPDEST POP JUMP JUMPDEST PUSH0 DUP2 MLOAD SWAP1 POP PUSH3 0x11B DUP2 PUSH3 0xF2 JUMP JUMPDEST SWAP3 SWAP2 POP POP JUMP JUMPDEST PUSH0 DUP1 PUSH1 0x40 DUP4 DUP6 SUB SLT ISZERO PUSH3 0x13A JUMPI PUSH3 0x139 PUSH3 0x84 JUMP JUMPDEST JUMPDEST PUSH0 PUSH3 0x149 DUP6 DUP3 DUP7 ADD PUSH3 0xAA JUMP JUMPDEST SWAP3 POP POP PUSH1 0x20 PUSH3 0x15C DUP6 DUP3 DUP7 ADD PUSH3 0x10B JUMP JUMPDEST SWAP2 POP POP SWAP3 POP SWAP3 SWAP1 POP JUMP JUMPDEST PUSH2 0x1550 DUP1 PUSH3 0x174 PUSH0 CODECOPY PUSH0 RETURN INVALID PUSH1 0x80 PUSH1 0x40 MSTORE PUSH1 0x4 CALLDATASIZE LT PUSH2 0xA6 JUMPI PUSH0 CALLDATALOAD PUSH1 0xE0 SHR DUP1 PUSH4 0x81D12C58 GT PUSH2 0x63 JUMPI DUP1 PUSH4 0x81D12C58 EQ PUSH2 0x1BA JUMPI DUP1 PUSH4 0x82FDE093 EQ PUSH2 0x1FA JUMPI DUP1 PUSH4 0x8A9CFD55 EQ PUSH2 0x224 JUMPI DUP1 PUSH4 0x937E09B1 EQ PUSH2 0x24C JUMPI DUP1 PUSH4 0xD7BB99BA EQ PUSH2 0x276 JUMPI DUP1 PUSH4 0xD7D1BBDB EQ PUSH2 0x280 JUMPI PUSH2 0xA6 JUMP JUMPDEST DUP1 PUSH4 0x3441006 EQ PUSH2 0xAA JUMPI DUP1 PUSH4 0xA144391 EQ PUSH2 0xD2 JUMPI DUP1 PUSH4 0x3410452A EQ PUSH2 0x10E JUMPI DUP1 PUSH4 0x4051DDAC EQ PUSH2 0x138 JUMPI DUP1 PUSH4 0x481C6A75 EQ PUSH2 0x166 JUMPI DUP1 PUSH4 0x6F9FB98A EQ PUSH2 0x190 JUMPI JUMPDEST PUSH0 DUP1 REVERT JUMPDEST CALLVALUE DUP1 ISZERO PUSH2 0xB5 JUMPI PUSH0 DUP1 REVERT JUMPDEST POP PUSH2 0xD0 PUSH1 0x4 DUP1 CALLDATASIZE SUB DUP2 ADD SWAP1 PUSH2 0xCB SWAP2 SWAP1 PUSH2 0xABB JUMP JUMPDEST PUSH2 0x2A8 JUMP JUMPDEST STOP JUMPDEST CALLVALUE DUP1 ISZERO PUSH2 0xDD JUMPI PUSH0 DUP1 REVERT JUMPDEST POP PUSH2 0xF8 PUSH1 0x4 DUP1 CALLDATASIZE SUB DUP2 ADD SWAP1 PUSH2 0xF3 SWAP2 SWAP1 PUSH2 0xB40 JUMP JUMPDEST PUSH2 0x453 JUMP JUMPDEST PUSH1 0x40 MLOAD PUSH2 0x105 SWAP2 SWAP1 PUSH2 0xB85 JUMP JUMPDEST PUSH1 0x40 MLOAD DUP1 SWAP2 SUB SWAP1 RETURN JUMPDEST CALLVALUE DUP1 ISZERO PUSH2 0x119 JUMPI PUSH0 DUP1 REVERT JUMPDEST POP PUSH2 0x122 PUSH2 0x470 JUMP JUMPDEST PUSH1 0x40 MLOAD PUSH2 0x12F SWAP2 SWAP1 PUSH2 0xBAD JUMP JUMPDEST PUSH1 0x40 MLOAD DUP1 SWAP2 SUB SWAP1 RETURN JUMPDEST CALLVALUE DUP1 ISZERO PUSH2 0x143 JUMPI PUSH0 DUP1 REVERT JUMPDEST POP PUSH2 0x14C PUSH2 0x47C JUMP JUMPDEST PUSH1 0x40 MLOAD PUSH2 0x15D SWAP6 SWAP5 SWAP4 SWAP3 SWAP2 SWAP1 PUSH2 0xBD5 JUMP JUMPDEST PUSH1 0x40 MLOAD DUP1 SWAP2 SUB SWAP1 RETURN JUMPDEST CALLVALUE DUP1 ISZERO PUSH2 0x171 JUMPI PUSH0 DUP1 REVERT JUMPDEST POP PUSH2 0x17A PUSH2 0x4BF JUMP JUMPDEST PUSH1 0x40 MLOAD PUSH2 0x187 SWAP2 SWAP1 PUSH2 0xC26 JUMP JUMPDEST PUSH1 0x40 MLOAD DUP1 SWAP2 SUB SWAP1 RETURN JUMPDEST CALLVALUE DUP1 ISZERO PUSH2 0x19B JUMPI PUSH0 DUP1 REVERT JUMPDEST POP PUSH2 0x1A4 PUSH2 0x4E2 JUMP JUMPDEST PUSH1 0x40 MLOAD PUSH2 0x1B1 SWAP2 SWAP1 PUSH2 0xBAD JUMP JUMPDEST PUSH1 0x40 MLOAD DUP1 SWAP2 SUB SWAP1 RETURN JUMPDEST CALLVALUE DUP1 ISZERO PUSH2 0x1C5 JUMPI PUSH0 DUP1 REVERT JUMPDEST POP PUSH2 0x1E0 PUSH1 0x4 DUP1 CALLDATASIZE SUB DUP2 ADD SWAP1 PUSH2 0x1DB SWAP2 SWAP1 PUSH2 0xABB JUMP JUMPDEST PUSH2 0x577 JUMP JUMPDEST PUSH1 0x40 MLOAD PUSH2 0x1F1 SWAP6 SWAP5 SWAP4 SWAP3 SWAP2 SWAP1 PUSH2 0xCE9 JUMP JUMPDEST PUSH1 0x40 MLOAD DUP1 SWAP2 SUB SWAP1 RETURN JUMPDEST CALLVALUE DUP1 ISZERO PUSH2 0x205 JUMPI PUSH0 DUP1 REVERT JUMPDEST POP PUSH2 0x20E PUSH2 0x66A JUMP JUMPDEST PUSH1 0x40 MLOAD PUSH2 0x21B SWAP2 SWAP1 PUSH2 0xBAD JUMP JUMPDEST PUSH1 0x40 MLOAD DUP1 SWAP2 SUB SWAP1 RETURN JUMPDEST CALLVALUE DUP1 ISZERO PUSH2 0x22F JUMPI PUSH0 DUP1 REVERT JUMPDEST POP PUSH2 0x24A PUSH1 0x4 DUP1 CALLDATASIZE SUB DUP2 ADD SWAP1 PUSH2 0x245 SWAP2 SWAP1 PUSH2 0xE6D JUMP JUMPDEST PUSH2 0x670 JUMP JUMPDEST STOP JUMPDEST CALLVALUE DUP1 ISZERO PUSH2 0x257 JUMPI PUSH0 DUP1 REVERT JUMPDEST POP PUSH2 0x260 PUSH2 0x7FE JUMP JUMPDEST PUSH1 0x40 MLOAD PUSH2 0x26D SWAP2 SWAP1 PUSH2 0xBAD JUMP JUMPDEST PUSH1 0x40 MLOAD DUP1 SWAP2 SUB SWAP1 RETURN JUMPDEST PUSH2 0x27E PUSH2 0x804 JUMP JUMPDEST STOP JUMPDEST CALLVALUE DUP1 ISZERO PUSH2 0x28B JUMPI PUSH0 DUP1 REVERT JUMPDEST POP PUSH2 0x2A6 PUSH1 0x4 DUP1 CALLDATASIZE SUB DUP2 ADD SWAP1 PUSH2 0x2A1 SWAP2 SWAP1 PUSH2 0xABB JUMP JUMPDEST PUSH2 0x8B6 JUMP JUMPDEST STOP JUMPDEST PUSH0 DUP1 SLOAD SWAP1 PUSH2 0x100 EXP SWAP1 DIV PUSH20 0xFFFFFFFFFFFFFFFFFFFFFFFFFFFFFFFFFFFFFFFF AND PUSH20 0xFFFFFFFFFFFFFFFFFFFFFFFFFFFFFFFFFFFFFFFF AND CALLER PUSH20 0xFFFFFFFFFFFFFFFFFFFFFFFFFFFFFFFFFFFFFFFF AND EQ PUSH2 0x335 JUMPI PUSH1 0x40 MLOAD PUSH32 0x8C379A000000000000000000000000000000000000000000000000000000000 DUP2 MSTORE PUSH1 0x4 ADD PUSH2 0x32C SWAP1 PUSH2 0xF49 JUMP JUMPDEST PUSH1 0x40 MLOAD DUP1 SWAP2 SUB SWAP1 REVERT JUMPDEST PUSH0 PUSH1 0x3 DUP3 DUP2 SLOAD DUP2 LT PUSH2 0x34A JUMPI PUSH2 0x349 PUSH2 0xF67 JUMP JUMPDEST JUMPDEST SWAP1 PUSH0 MSTORE PUSH1 0x20 PUSH0 KECCAK256 SWAP1 PUSH1 0x4 MUL ADD SWAP1 POP DUP1 PUSH1 0x2 ADD PUSH1 0x14 SWAP1 SLOAD SWAP1 PUSH2 0x100 EXP SWAP1 DIV PUSH1 0xFF AND ISZERO PUSH2 0x3AA JUMPI PUSH1 0x40 MLOAD PUSH32 0x8C379A000000000000000000000000000000000000000000000000000000000 DUP2 MSTORE PUSH1 0x4 ADD PUSH2 0x3A1 SWAP1 PUSH2 0xFDE JUMP JUMPDEST PUSH1 0x40 MLOAD DUP1 SWAP2 SUB SWAP1 REVERT JUMPDEST PUSH1 0x2 PUSH1 0x5 SLOAD PUSH2 0x3B9 SWAP2 SWAP1 PUSH2 0x1056 JUMP JUMPDEST DUP2 PUSH1 0x3 ADD SLOAD GT PUSH2 0x3C7 JUMPI PUSH0 DUP1 REVERT JUMPDEST DUP1 PUSH1 0x2 ADD PUSH0 SWAP1 SLOAD SWAP1 PUSH2 0x100 EXP SWAP1 DIV PUSH20 0xFFFFFFFFFFFFFFFFFFFFFFFFFFFFFFFFFFFFFFFF AND PUSH20 0xFFFFFFFFFFFFFFFFFFFFFFFFFFFFFFFFFFFFFFFF AND PUSH2 0x8FC DUP3 PUSH1 0x1 ADD SLOAD SWAP1 DUP2 ISZERO MUL SWAP1 PUSH1 0x40 MLOAD PUSH0 PUSH1 0x40 MLOAD DUP1 DUP4 SUB DUP2 DUP6 DUP9 DUP9 CALL SWAP4 POP POP POP POP ISZERO DUP1 ISZERO PUSH2 0x431 JUMPI RETURNDATASIZE PUSH0 DUP1 RETURNDATACOPY RETURNDATASIZE PUSH0 REVERT JUMPDEST POP PUSH1 0x1 DUP2 PUSH1 0x2 ADD PUSH1 0x14 PUSH2 0x100 EXP DUP2 SLOAD DUP2 PUSH1 0xFF MUL NOT AND SWAP1 DUP4 ISZERO ISZERO MUL OR SWAP1 SSTORE POP POP POP JUMP JUMPDEST PUSH1 0x2 PUSH1 0x20 MSTORE DUP1 PUSH0 MSTORE PUSH1 0x40 PUSH0 KECCAK256 PUSH0 SWAP2 POP SLOAD SWAP1 PUSH2 0x100 EXP SWAP1 DIV PUSH1 0xFF AND DUP2 JUMP JUMPDEST PUSH0 PUSH1 0x3 DUP1 SLOAD SWAP1 POP SWAP1 POP SWAP1 JUMP JUMPDEST PUSH0 DUP1 PUSH0 DUP1 PUSH0 PUSH1 0x1 SLOAD SELFBALANCE PUSH1 0x3 DUP1 SLOAD SWAP1 POP PUSH1 0x5 SLOAD PUSH0 DUP1 SLOAD SWAP1 PUSH2 0x100 EXP SWAP1 DIV PUSH20 0xFFFFFFFFFFFFFFFFFFFFFFFFFFFFFFFFFFFFFFFF AND SWAP5 POP SWAP5 POP SWAP5 POP SWAP5 POP SWAP5 POP SWAP1 SWAP2 SWAP3 SWAP4 SWAP5 JUMP JUMPDEST PUSH0 DUP1 SLOAD SWAP1 PUSH2 0x100 EXP SWAP1 DIV PUSH20 0xFFFFFFFFFFFFFFFFFFFFFFFFFFFFFFFFFFFFFFFF AND DUP2 JUMP JUMPDEST PUSH0 DUP1 PUSH0 SWAP1 SLOAD SWAP1 PUSH2 0x100 EXP SWAP1 DIV PUSH20 0xFFFFFFFFFFFFFFFFFFFFFFFFFFFFFFFFFFFFFFFF AND PUSH20 0xFFFFFFFFFFFFFFFFFFFFFFFFFFFFFFFFFFFFFFFF AND CALLER PUSH20 0xFFFFFFFFFFFFFFFFFFFFFFFFFFFFFFFFFFFFFFFF AND EQ PUSH2 0x571 JUMPI PUSH1 0x40 MLOAD PUSH32 0x8C379A000000000000000000000000000000000000000000000000000000000 DUP2 MSTORE PUSH1 0x4 ADD PUSH2 0x568 SWAP1 PUSH2 0xF49 JUMP JUMPDEST PUSH1 0x40 MLOAD DUP1 SWAP2 SUB SWAP1 REVERT JUMPDEST SELFBALANCE SWAP1 POP SWAP1 JUMP JUMPDEST PUSH1 0x3 DUP2 DUP2 SLOAD DUP2 LT PUSH2 0x586 JUMPI PUSH0 DUP1 REVERT JUMPDEST SWAP1 PUSH0 MSTORE PUSH1 0x20 PUSH0 KECCAK256 SWAP1 PUSH1 0x4 MUL ADD PUSH0 SWAP2 POP SWAP1 POP DUP1 PUSH0 ADD DUP1 SLOAD PUSH2 0x5A5 SWAP1 PUSH2 0x10B3 JUMP JUMPDEST DUP1 PUSH1 0x1F ADD PUSH1 0x20 DUP1 SWAP2 DIV MUL PUSH1 0x20 ADD PUSH1 0x40 MLOAD SWAP1 DUP2 ADD PUSH1 0x40 MSTORE DUP1 SWAP3 SWAP2 SWAP1 DUP2 DUP2 MSTORE PUSH1 0x20 ADD DUP3 DUP1 SLOAD PUSH2 0x5D1 SWAP1 PUSH2 0x10B3 JUMP JUMPDEST DUP1 ISZERO PUSH2 0x61C JUMPI DUP1 PUSH1 0x1F LT PUSH2 0x5F3 JUMPI PUSH2 0x100 DUP1 DUP4 SLOAD DIV MUL DUP4 MSTORE SWAP2 PUSH1 0x20 ADD SWAP2 PUSH2 0x61C JUMP JUMPDEST DUP3 ADD SWAP2 SWAP1 PUSH0 MSTORE PUSH1 0x20 PUSH0 KECCAK256 SWAP1 JUMPDEST DUP2 SLOAD DUP2 MSTORE SWAP1 PUSH1 0x1 ADD SWAP1 PUSH1 0x20 ADD DUP1 DUP4 GT PUSH2 0x5FF JUMPI DUP3 SWAP1 SUB PUSH1 0x1F AND DUP3 ADD SWAP2 JUMPDEST POP POP POP POP POP SWAP1 DUP1 PUSH1 0x1 ADD SLOAD SWAP1 DUP1 PUSH1 0x2 ADD PUSH0 SWAP1 SLOAD SWAP1 PUSH2 0x100 EXP SWAP1 DIV PUSH20 0xFFFFFFFFFFFFFFFFFFFFFFFFFFFFFFFFFFFFFFFF AND SWAP1 DUP1 PUSH1 0x2 ADD PUSH1 0x14 SWAP1 SLOAD SWAP1 PUSH2 0x100 EXP SWAP1 DIV PUSH1 0xFF AND SWAP1 DUP1 PUSH1 0x3 ADD SLOAD SWAP1 POP DUP6 JUMP JUMPDEST PUSH1 0x5 SLOAD DUP2 JUMP JUMPDEST PUSH0 DUP1 SLOAD SWAP1 PUSH2 0x100 EXP SWAP1 DIV PUSH20 0xFFFFFFFFFFFFFFFFFFFFFFFFFFFFFFFFFFFFFFFF AND PUSH20 0xFFFFFFFFFFFFFFFFFFFFFFFFFFFFFFFFFFFFFFFF AND CALLER PUSH20 0xFFFFFFFFFFFFFFFFFFFFFFFFFFFFFFFFFFFFFFFF AND EQ PUSH2 0x6FD JUMPI PUSH1 0x40 MLOAD PUSH32 0x8C379A000000000000000000000000000000000000000000000000000000000 DUP2 MSTORE PUSH1 0x4 ADD PUSH2 0x6F4 SWAP1 PUSH2 0xF49 JUMP JUMPDEST PUSH1 0x40 MLOAD DUP1 SWAP2 SUB SWAP1 REVERT JUMPDEST PUSH0 PUSH1 0x40 MLOAD DUP1 PUSH1 0xA0 ADD PUSH1 0x40 MSTORE DUP1 DUP6 DUP2 MSTORE PUSH1 0x20 ADD DUP5 DUP2 MSTORE PUSH1 0x20 ADD DUP4 PUSH20 0xFFFFFFFFFFFFFFFFFFFFFFFFFFFFFFFFFFFFFFFF AND DUP2 MSTORE PUSH1 0x20 ADD PUSH0 ISZERO ISZERO DUP2 MSTORE PUSH1 0x20 ADD PUSH0 DUP2 MSTORE POP SWAP1 POP PUSH1 0x3 DUP2 SWAP1 DUP1 PUSH1 0x1 DUP2 SLOAD ADD DUP1 DUP3 SSTORE DUP1 SWAP2 POP POP PUSH1 0x1 SWAP1 SUB SWAP1 PUSH0 MSTORE PUSH1 0x20 PUSH0 KECCAK256 SWAP1 PUSH1 0x4 MUL ADD PUSH0 SWAP1 SWAP2 SWAP1 SWAP2 SWAP1 SWAP2 POP PUSH0 DUP3 ADD MLOAD DUP2 PUSH0 ADD SWAP1 DUP2 PUSH2 0x77B SWAP2 SWAP1 PUSH2 0x1280 JUMP JUMPDEST POP PUSH1 0x20 DUP3 ADD MLOAD DUP2 PUSH1 0x1 ADD SSTORE PUSH1 0x40 DUP3 ADD MLOAD DUP2 PUSH1 0x2 ADD PUSH0 PUSH2 0x100 EXP DUP2 SLOAD DUP2 PUSH20 0xFFFFFFFFFFFFFFFFFFFFFFFFFFFFFFFFFFFFFFFF MUL NOT AND SWAP1 DUP4 PUSH20 0xFFFFFFFFFFFFFFFFFFFFFFFFFFFFFFFFFFFFFFFF AND MUL OR SWAP1 SSTORE POP PUSH1 0x60 DUP3 ADD MLOAD DUP2 PUSH1 0x2 ADD PUSH1 0x14 PUSH2 0x100 EXP DUP2 SLOAD DUP2 PUSH1 0xFF MUL NOT AND SWAP1 DUP4 ISZERO ISZERO MUL OR SWAP1 SSTORE POP PUSH1 0x80 DUP3 ADD MLOAD DUP2 PUSH1 0x3 ADD SSTORE POP POP POP POP POP POP JUMP JUMPDEST PUSH1 0x1 SLOAD DUP2 JUMP JUMPDEST PUSH1 0x1 SLOAD CALLVALUE GT PUSH2 0x848 JUMPI PUSH1 0x40 MLOAD PUSH32 0x8C379A000000000000000000000000000000000000000000000000000000000 DUP2 MSTORE PUSH1 0x4 ADD PUSH2 0x83F SWAP1 PUSH2 0x13BF JUMP JUMPDEST PUSH1 0x40 MLOAD DUP1 SWAP2 SUB SWAP1 REVERT JUMPDEST PUSH1 0x1 PUSH1 0x2 PUSH0 CALLER PUSH20 0xFFFFFFFFFFFFFFFFFFFFFFFFFFFFFFFFFFFFFFFF AND PUSH20 0xFFFFFFFFFFFFFFFFFFFFFFFFFFFFFFFFFFFFFFFF AND DUP2 MSTORE PUSH1 0x20 ADD SWAP1 DUP2 MSTORE PUSH1 0x20 ADD PUSH0 KECCAK256 PUSH0 PUSH2 0x100 EXP DUP2 SLOAD DUP2 PUSH1 0xFF MUL NOT AND SWAP1 DUP4 ISZERO ISZERO MUL OR SWAP1 SSTORE POP PUSH1 0x5 PUSH0 DUP2 SLOAD DUP1 SWAP3 SWAP2 SWAP1 PUSH2 0x8AF SWAP1 PUSH2 0x13DD JUMP JUMPDEST SWAP2 SWAP1 POP SSTORE POP JUMP JUMPDEST PUSH1 0x2 PUSH0 CALLER PUSH20 0xFFFFFFFFFFFFFFFFFFFFFFFFFFFFFFFFFFFFFFFF AND PUSH20 0xFFFFFFFFFFFFFFFFFFFFFFFFFFFFFFFFFFFFFFFF AND DUP2 MSTORE PUSH1 0x20 ADD SWAP1 DUP2 MSTORE PUSH1 0x20 ADD PUSH0 KECCAK256 PUSH0 SWAP1 SLOAD SWAP1 PUSH2 0x100 EXP SWAP1 DIV PUSH1 0xFF AND PUSH2 0x93F JUMPI PUSH1 0x40 MLOAD PUSH32 0x8C379A000000000000000000000000000000000000000000000000000000000 DUP2 MSTORE PUSH1 0x4 ADD PUSH2 0x936 SWAP1 PUSH2 0x146E JUMP JUMPDEST PUSH1 0x40 MLOAD DUP1 SWAP2 SUB SWAP1 REVERT JUMPDEST PUSH1 0x4 PUSH0 DUP3 DUP2 MSTORE PUSH1 0x20 ADD SWAP1 DUP2 MSTORE PUSH1 0x20 ADD PUSH0 KECCAK256 PUSH0 CALLER PUSH20 0xFFFFFFFFFFFFFFFFFFFFFFFFFFFFFFFFFFFFFFFF AND PUSH20 0xFFFFFFFFFFFFFFFFFFFFFFFFFFFFFFFFFFFFFFFF AND DUP2 MSTORE PUSH1 0x20 ADD SWAP1 DUP2 MSTORE PUSH1 0x20 ADD PUSH0 KECCAK256 PUSH0 SWAP1 SLOAD SWAP1 PUSH2 0x100 EXP SWAP1 DIV PUSH1 0xFF AND ISZERO PUSH2 0x9D8 JUMPI PUSH1 0x40 MLOAD PUSH32 0x8C379A000000000000000000000000000000000000000000000000000000000 DUP2 MSTORE PUSH1 0x4 ADD PUSH2 0x9CF SWAP1 PUSH2 0x14FC JUMP JUMPDEST PUSH1 0x40 MLOAD DUP1 SWAP2 SUB SWAP1 REVERT JUMPDEST PUSH1 0x3 DUP2 DUP2 SLOAD DUP2 LT PUSH2 0x9EC JUMPI PUSH2 0x9EB PUSH2 0xF67 JUMP JUMPDEST JUMPDEST SWAP1 PUSH0 MSTORE PUSH1 0x20 PUSH0 KECCAK256 SWAP1 PUSH1 0x4 MUL ADD PUSH1 0x3 ADD PUSH0 DUP2 SLOAD DUP1 SWAP3 SWAP2 SWAP1 PUSH2 0xA0B SWAP1 PUSH2 0x13DD JUMP JUMPDEST SWAP2 SWAP1 POP SSTORE POP PUSH1 0x1 PUSH1 0x4 PUSH0 DUP4 DUP2 MSTORE PUSH1 0x20 ADD SWAP1 DUP2 MSTORE PUSH1 0x20 ADD PUSH0 KECCAK256 PUSH0 CALLER PUSH20 0xFFFFFFFFFFFFFFFFFFFFFFFFFFFFFFFFFFFFFFFF AND PUSH20 0xFFFFFFFFFFFFFFFFFFFFFFFFFFFFFFFFFFFFFFFF AND DUP2 MSTORE PUSH1 0x20 ADD SWAP1 DUP2 MSTORE PUSH1 0x20 ADD PUSH0 KECCAK256 PUSH0 PUSH2 0x100 EXP DUP2 SLOAD DUP2 PUSH1 0xFF MUL NOT AND SWAP1 DUP4 ISZERO ISZERO MUL OR SWAP1 SSTORE POP POP JUMP JUMPDEST PUSH0 PUSH1 0x40 MLOAD SWAP1 POP SWAP1 JUMP JUMPDEST PUSH0 DUP1 REVERT JUMPDEST PUSH0 DUP1 REVERT JUMPDEST PUSH0 DUP2 SWAP1 POP SWAP2 SWAP1 POP JUMP JUMPDEST PUSH2 0xA9A DUP2 PUSH2 0xA88 JUMP JUMPDEST DUP2 EQ PUSH2 0xAA4 JUMPI PUSH0 DUP1 REVERT JUMPDEST POP JUMP JUMPDEST PUSH0 DUP2 CALLDATALOAD SWAP1 POP PUSH2 0xAB5 DUP2 PUSH2 0xA91 JUMP JUMPDEST SWAP3 SWAP2 POP POP JUMP JUMPDEST PUSH0 PUSH1 0x20 DUP3 DUP5 SUB SLT ISZERO PUSH2 0xAD0 JUMPI PUSH2 0xACF PUSH2 0xA80 JUMP JUMPDEST JUMPDEST PUSH0 PUSH2 0xADD DUP5 DUP3 DUP6 ADD PUSH2 0xAA7 JUMP JUMPDEST SWAP2 POP POP SWAP3 SWAP2 POP POP JUMP JUMPDEST PUSH0 PUSH20 0xFFFFFFFFFFFFFFFFFFFFFFFFFFFFFFFFFFFFFFFF DUP3 AND SWAP1 POP SWAP2 SWAP1 POP JUMP JUMPDEST PUSH0 PUSH2 0xB0F DUP3 PUSH2 0xAE6 JUMP JUMPDEST SWAP1 POP SWAP2 SWAP1 POP JUMP JUMPDEST PUSH2 0xB1F DUP2 PUSH2 0xB05 JUMP JUMPDEST DUP2 EQ PUSH2 0xB29 JUMPI PUSH0 DUP1 REVERT JUMPDEST POP JUMP JUMPDEST PUSH0 DUP2 CALLDATALOAD SWAP1 POP PUSH2 0xB3A DUP2 PUSH2 0xB16 JUMP JUMPDEST SWAP3 SWAP2 POP POP JUMP JUMPDEST PUSH0 PUSH1 0x20 DUP3 DUP5 SUB SLT ISZERO PUSH2 0xB55 JUMPI PUSH2 0xB54 PUSH2 0xA80 JUMP JUMPDEST JUMPDEST PUSH0 PUSH2 0xB62 DUP5 DUP3 DUP6 ADD PUSH2 0xB2C JUMP JUMPDEST SWAP2 POP POP SWAP3 SWAP2 POP POP JUMP JUMPDEST PUSH0 DUP2 ISZERO ISZERO SWAP1 POP SWAP2 SWAP1 POP JUMP JUMPDEST PUSH2 0xB7F DUP2 PUSH2 0xB6B JUMP JUMPDEST DUP3 MSTORE POP POP JUMP JUMPDEST PUSH0 PUSH1 0x20 DUP3 ADD SWAP1 POP PUSH2 0xB98 PUSH0 DUP4 ADD DUP5 PUSH2 0xB76 JUMP JUMPDEST SWAP3 SWAP2 POP POP JUMP JUMPDEST PUSH2 0xBA7 DUP2 PUSH2 0xA88 JUMP JUMPDEST DUP3 MSTORE POP POP JUMP JUMPDEST PUSH0 PUSH1 0x20 DUP3 ADD SWAP1 POP PUSH2 0xBC0 PUSH0 DUP4 ADD DUP5 PUSH2 0xB9E JUMP JUMPDEST SWAP3 SWAP2 POP POP JUMP JUMPDEST PUSH2 0xBCF DUP2 PUSH2 0xB05 JUMP JUMPDEST DUP3 MSTORE POP POP JUMP JUMPDEST PUSH0 PUSH1 0xA0 DUP3 ADD SWAP1 POP PUSH2 0xBE8 PUSH0 DUP4 ADD DUP9 PUSH2 0xB9E JUMP JUMPDEST PUSH2 0xBF5 PUSH1 0x20 DUP4 ADD DUP8 PUSH2 0xB9E JUMP JUMPDEST PUSH2 0xC02 PUSH1 0x40 DUP4 ADD DUP7 PUSH2 0xB9E JUMP JUMPDEST PUSH2 0xC0F PUSH1 0x60 DUP4 ADD DUP6 PUSH2 0xB9E JUMP JUMPDEST PUSH2 0xC1C PUSH1 0x80 DUP4 ADD DUP5 PUSH2 0xBC6 JUMP JUMPDEST SWAP7 SWAP6 POP POP POP POP POP POP JUMP JUMPDEST PUSH0 PUSH1 0x20 DUP3 ADD SWAP1 POP PUSH2 0xC39 PUSH0 DUP4 ADD DUP5 PUSH2 0xBC6 JUMP JUMPDEST SWAP3 SWAP2 POP POP JUMP JUMPDEST PUSH0 DUP2 MLOAD SWAP1 POP SWAP2 SWAP1 POP JUMP JUMPDEST PUSH0 DUP3 DUP3 MSTORE PUSH1 0x20 DUP3 ADD SWAP1 POP SWAP3 SWAP2 POP POP JUMP JUMPDEST PUSH0 JUMPDEST DUP4 DUP2 LT ISZERO PUSH2 0xC76 JUMPI DUP1 DUP3 ADD MLOAD DUP2 DUP5 ADD MSTORE PUSH1 0x20 DUP2 ADD SWAP1 POP PUSH2 0xC5B JUMP JUMPDEST PUSH0 DUP5 DUP5 ADD MSTORE POP POP POP POP JUMP JUMPDEST PUSH0 PUSH1 0x1F NOT PUSH1 0x1F DUP4 ADD AND SWAP1 POP SWAP2 SWAP1 POP JUMP JUMPDEST PUSH0 PUSH2 0xC9B DUP3 PUSH2 0xC3F JUMP JUMPDEST PUSH2 0xCA5 DUP2 DUP6 PUSH2 0xC49 JUMP JUMPDEST SWAP4 POP PUSH2 0xCB5 DUP2 DUP6 PUSH1 0x20 DUP7 ADD PUSH2 0xC59 JUMP JUMPDEST PUSH2 0xCBE DUP2 PUSH2 0xC81 JUMP JUMPDEST DUP5 ADD SWAP2 POP POP SWAP3 SWAP2 POP POP JUMP JUMPDEST PUSH0 PUSH2 0xCD3 DUP3 PUSH2 0xAE6 JUMP JUMPDEST SWAP1 POP SWAP2 SWAP1 POP JUMP JUMPDEST PUSH2 0xCE3 DUP2 PUSH2 0xCC9 JUMP JUMPDEST DUP3 MSTORE POP POP JUMP JUMPDEST PUSH0 PUSH1 0xA0 DUP3 ADD SWAP1 POP DUP2 DUP2 SUB PUSH0 DUP4 ADD MSTORE PUSH2 0xD01 DUP2 DUP9 PUSH2 0xC91 JUMP JUMPDEST SWAP1 POP PUSH2 0xD10 PUSH1 0x20 DUP4 ADD DUP8 PUSH2 0xB9E JUMP JUMPDEST PUSH2 0xD1D PUSH1 0x40 DUP4 ADD DUP7 PUSH2 0xCDA JUMP JUMPDEST PUSH2 0xD2A PUSH1 0x60 DUP4 ADD DUP6 PUSH2 0xB76 JUMP JUMPDEST PUSH2 0xD37 PUSH1 0x80 DUP4 ADD DUP5 PUSH2 0xB9E JUMP JUMPDEST SWAP7 SWAP6 POP POP POP POP POP POP JUMP JUMPDEST PUSH0 DUP1 REVERT JUMPDEST PUSH0 DUP1 REVERT JUMPDEST PUSH32 0x4E487B7100000000000000000000000000000000000000000000000000000000 PUSH0 MSTORE PUSH1 0x41 PUSH1 0x4 MSTORE PUSH1 0x24 PUSH0 REVERT JUMPDEST PUSH2 0xD7F DUP3 PUSH2 0xC81 JUMP JUMPDEST DUP2 ADD DUP2 DUP2 LT PUSH8 0xFFFFFFFFFFFFFFFF DUP3 GT OR ISZERO PUSH2 0xD9E JUMPI PUSH2 0xD9D PUSH2 0xD49 JUMP JUMPDEST JUMPDEST DUP1 PUSH1 0x40 MSTORE POP POP POP JUMP JUMPDEST PUSH0 PUSH2 0xDB0 PUSH2 0xA77 JUMP JUMPDEST SWAP1 POP PUSH2 0xDBC DUP3 DUP3 PUSH2 0xD76 JUMP JUMPDEST SWAP2 SWAP1 POP JUMP JUMPDEST PUSH0 PUSH8 0xFFFFFFFFFFFFFFFF DUP3 GT ISZERO PUSH2 0xDDB JUMPI PUSH2 0xDDA PUSH2 0xD49 JUMP JUMPDEST JUMPDEST PUSH2 0xDE4 DUP3 PUSH2 0xC81 JUMP JUMPDEST SWAP1 POP PUSH1 0x20 DUP2 ADD SWAP1 POP SWAP2 SWAP1 POP JUMP JUMPDEST DUP3 DUP2 DUP4 CALLDATACOPY PUSH0 DUP4 DUP4 ADD MSTORE POP POP POP JUMP JUMPDEST PUSH0 PUSH2 0xE11 PUSH2 0xE0C DUP5 PUSH2 0xDC1 JUMP JUMPDEST PUSH2 0xDA7 JUMP JUMPDEST SWAP1 POP DUP3 DUP2 MSTORE PUSH1 0x20 DUP2 ADD DUP5 DUP5 DUP5 ADD GT ISZERO PUSH2 0xE2D JUMPI PUSH2 0xE2C PUSH2 0xD45 JUMP JUMPDEST JUMPDEST PUSH2 0xE38 DUP5 DUP3 DUP6 PUSH2 0xDF1 JUMP JUMPDEST POP SWAP4 SWAP3 POP POP POP JUMP JUMPDEST PUSH0 DUP3 PUSH1 0x1F DUP4 ADD SLT PUSH2 0xE54 JUMPI PUSH2 0xE53 PUSH2 0xD41 JUMP JUMPDEST JUMPDEST DUP2 CALLDATALOAD PUSH2 0xE64 DUP5 DUP3 PUSH1 0x20 DUP7 ADD PUSH2 0xDFF JUMP JUMPDEST SWAP2 POP POP SWAP3 SWAP2 POP POP JUMP JUMPDEST PUSH0 DUP1 PUSH0 PUSH1 0x60 DUP5 DUP7 SUB SLT ISZERO PUSH2 0xE84 JUMPI PUSH2 0xE83 PUSH2 0xA80 JUMP JUMPDEST JUMPDEST PUSH0 DUP5 ADD CALLDATALOAD PUSH8 0xFFFFFFFFFFFFFFFF DUP2 GT ISZERO PUSH2 0xEA1 JUMPI PUSH2 0xEA0 PUSH2 0xA84 JUMP JUMPDEST JUMPDEST PUSH2 0xEAD DUP7 DUP3 DUP8 ADD PUSH2 0xE40 JUMP JUMPDEST SWAP4 POP POP PUSH1 0x20 PUSH2 0xEBE DUP7 DUP3 DUP8 ADD PUSH2 0xAA7 JUMP JUMPDEST SWAP3 POP POP PUSH1 0x40 PUSH2 0xECF DUP7 DUP3 DUP8 ADD PUSH2 0xB2C JUMP JUMPDEST SWAP2 POP POP SWAP3 POP SWAP3 POP SWAP3 JUMP JUMPDEST PUSH32 0x4F6E6C7920746865206D616E616765722063616E2061636365737320746F2074 PUSH0 DUP3 ADD MSTORE PUSH32 0x6869732066756E6374696F6E0000000000000000000000000000000000000000 PUSH1 0x20 DUP3 ADD MSTORE POP JUMP JUMPDEST PUSH0 PUSH2 0xF33 PUSH1 0x2C DUP4 PUSH2 0xC49 JUMP JUMPDEST SWAP2 POP PUSH2 0xF3E DUP3 PUSH2 0xED9 JUMP JUMPDEST PUSH1 0x40 DUP3 ADD SWAP1 POP SWAP2 SWAP1 POP JUMP JUMPDEST PUSH0 PUSH1 0x20 DUP3 ADD SWAP1 POP DUP2 DUP2 SUB PUSH0 DUP4 ADD MSTORE PUSH2 0xF60 DUP2 PUSH2 0xF27 JUMP JUMPDEST SWAP1 POP SWAP2 SWAP1 POP JUMP JUMPDEST PUSH32 0x4E487B7100000000000000000000000000000000000000000000000000000000 PUSH0 MSTORE PUSH1 0x32 PUSH1 0x4 MSTORE PUSH1 0x24 PUSH0 REVERT JUMPDEST PUSH32 0x5265717565737420697320616C726561647920636F6D706C6574656400000000 PUSH0 DUP3 ADD MSTORE POP JUMP JUMPDEST PUSH0 PUSH2 0xFC8 PUSH1 0x1C DUP4 PUSH2 0xC49 JUMP JUMPDEST SWAP2 POP PUSH2 0xFD3 DUP3 PUSH2 0xF94 JUMP JUMPDEST PUSH1 0x20 DUP3 ADD SWAP1 POP SWAP2 SWAP1 POP JUMP JUMPDEST PUSH0 PUSH1 0x20 DUP3 ADD SWAP1 POP DUP2 DUP2 SUB PUSH0 DUP4 ADD MSTORE PUSH2 0xFF5 DUP2 PUSH2 0xFBC JUMP JUMPDEST SWAP1 POP SWAP2 SWAP1 POP JUMP JUMPDEST PUSH32 0x4E487B7100000000000000000000000000000000000000000000000000000000 PUSH0 MSTORE PUSH1 0x12 PUSH1 0x4 MSTORE PUSH1 0x24 PUSH0 REVERT JUMPDEST PUSH32 0x4E487B7100000000000000000000000000000000000000000000000000000000 PUSH0 MSTORE PUSH1 0x11 PUSH1 0x4 MSTORE PUSH1 0x24 PUSH0 REVERT JUMPDEST PUSH0 PUSH2 0x1060 DUP3 PUSH2 0xA88 JUMP JUMPDEST SWAP2 POP PUSH2 0x106B DUP4 PUSH2 0xA88 JUMP JUMPDEST SWAP3 POP DUP3 PUSH2 0x107B JUMPI PUSH2 0x107A PUSH2 0xFFC JUMP JUMPDEST JUMPDEST DUP3 DUP3 DIV SWAP1 POP SWAP3 SWAP2 POP POP JUMP JUMPDEST PUSH32 0x4E487B7100000000000000000000000000000000000000000000000000000000 PUSH0 MSTORE PUSH1 0x22 PUSH1 0x4 MSTORE PUSH1 0x24 PUSH0 REVERT JUMPDEST PUSH0 PUSH1 0x2 DUP3 DIV SWAP1 POP PUSH1 0x1 DUP3 AND DUP1 PUSH2 0x10CA JUMPI PUSH1 0x7F DUP3 AND SWAP2 POP JUMPDEST PUSH1 0x20 DUP3 LT DUP2 SUB PUSH2 0x10DD JUMPI PUSH2 0x10DC PUSH2 0x1086 JUMP JUMPDEST JUMPDEST POP SWAP2 SWAP1 POP JUMP JUMPDEST PUSH0 DUP2 SWAP1 POP DUP2 PUSH0 MSTORE PUSH1 0x20 PUSH0 KECCAK256 SWAP1 POP SWAP2 SWAP1 POP JUMP JUMPDEST PUSH0 PUSH1 0x20 PUSH1 0x1F DUP4 ADD DIV SWAP1 POP SWAP2 SWAP1 POP JUMP JUMPDEST PUSH0 DUP3 DUP3 SHL SWAP1 POP SWAP3 SWAP2 POP POP JUMP JUMPDEST PUSH0 PUSH1 0x8 DUP4 MUL PUSH2 0x113F PUSH32 0xFFFFFFFFFFFFFFFFFFFFFFFFFFFFFFFFFFFFFFFFFFFFFFFFFFFFFFFFFFFFFFFF DUP3 PUSH2 0x1104 JUMP JUMPDEST PUSH2 0x1149 DUP7 DUP4 PUSH2 0x1104 JUMP JUMPDEST SWAP6 POP DUP1 NOT DUP5 AND SWAP4 POP DUP1 DUP7 AND DUP5 OR SWAP3 POP POP POP SWAP4 SWAP3 POP POP POP JUMP JUMPDEST PUSH0 DUP2 SWAP1 POP SWAP2 SWAP1 POP JUMP JUMPDEST PUSH0 PUSH2 0x1184 PUSH2 0x117F PUSH2 0x117A DUP5 PUSH2 0xA88 JUMP JUMPDEST PUSH2 0x1161 JUMP JUMPDEST PUSH2 0xA88 JUMP JUMPDEST SWAP1 POP SWAP2 SWAP1 POP JUMP JUMPDEST PUSH0 DUP2 SWAP1 POP SWAP2 SWAP1 POP JUMP JUMPDEST PUSH2 0x119D DUP4 PUSH2 0x116A JUMP JUMPDEST PUSH2 0x11B1 PUSH2 0x11A9 DUP3 PUSH2 0x118B JUMP JUMPDEST DUP5 DUP5 SLOAD PUSH2 0x1110 JUMP JUMPDEST DUP3 SSTORE POP POP POP POP JUMP JUMPDEST PUSH0 SWAP1 JUMP JUMPDEST PUSH2 0x11C5 PUSH2 0x11B9 JUMP JUMPDEST PUSH2 0x11D0 DUP2 DUP5 DUP5 PUSH2 0x1194 JUMP JUMPDEST POP POP POP JUMP JUMPDEST JUMPDEST DUP2 DUP2 LT ISZERO PUSH2 0x11F3 JUMPI PUSH2 0x11E8 PUSH0 DUP3 PUSH2 0x11BD JUMP JUMPDEST PUSH1 0x1 DUP2 ADD SWAP1 POP PUSH2 0x11D6 JUMP JUMPDEST POP POP JUMP JUMPDEST PUSH1 0x1F DUP3 GT ISZERO PUSH2 0x1238 JUMPI PUSH2 0x1209 DUP2 PUSH2 0x10E3 JUMP JUMPDEST PUSH2 0x1212 DUP5 PUSH2 0x10F5 JUMP JUMPDEST DUP2 ADD PUSH1 0x20 DUP6 LT ISZERO PUSH2 0x1221 JUMPI DUP2 SWAP1 POP JUMPDEST PUSH2 0x1235 PUSH2 0x122D DUP6 PUSH2 0x10F5 JUMP JUMPDEST DUP4 ADD DUP3 PUSH2 0x11D5 JUMP JUMPDEST POP POP JUMPDEST POP POP POP JUMP JUMPDEST PUSH0 DUP3 DUP3 SHR SWAP1 POP SWAP3 SWAP2 POP POP JUMP JUMPDEST PUSH0 PUSH2 0x1258 PUSH0 NOT DUP5 PUSH1 0x8 MUL PUSH2 0x123D JUMP JUMPDEST NOT DUP1 DUP4 AND SWAP2 POP POP SWAP3 SWAP2 POP POP JUMP JUMPDEST PUSH0 PUSH2 0x1270 DUP4 DUP4 PUSH2 0x1249 JUMP JUMPDEST SWAP2 POP DUP3 PUSH1 0x2 MUL DUP3 OR SWAP1 POP SWAP3 SWAP2 POP POP JUMP JUMPDEST PUSH2 0x1289 DUP3 PUSH2 0xC3F JUMP JUMPDEST PUSH8 0xFFFFFFFFFFFFFFFF DUP2 GT ISZERO PUSH2 0x12A2 JUMPI PUSH2 0x12A1 PUSH2 0xD49 JUMP JUMPDEST JUMPDEST PUSH2 0x12AC DUP3 SLOAD PUSH2 0x10B3 JUMP JUMPDEST PUSH2 0x12B7 DUP3 DUP3 DUP6 PUSH2 0x11F7 JUMP JUMPDEST PUSH0 PUSH1 0x20 SWAP1 POP PUSH1 0x1F DUP4 GT PUSH1 0x1 DUP2 EQ PUSH2 0x12E8 JUMPI PUSH0 DUP5 ISZERO PUSH2 0x12D6 JUMPI DUP3 DUP8 ADD MLOAD SWAP1 POP JUMPDEST PUSH2 0x12E0 DUP6 DUP3 PUSH2 0x1265 JUMP JUMPDEST DUP7 SSTORE POP PUSH2 0x1347 JUMP JUMPDEST PUSH1 0x1F NOT DUP5 AND PUSH2 0x12F6 DUP7 PUSH2 0x10E3 JUMP JUMPDEST PUSH0 JUMPDEST DUP3 DUP2 LT ISZERO PUSH2 0x131D JUMPI DUP5 DUP10 ADD MLOAD DUP3 SSTORE PUSH1 0x1 DUP3 ADD SWAP2 POP PUSH1 0x20 DUP6 ADD SWAP5 POP PUSH1 0x20 DUP2 ADD SWAP1 POP PUSH2 0x12F8 JUMP JUMPDEST DUP7 DUP4 LT ISZERO PUSH2 0x133A JUMPI DUP5 DUP10 ADD MLOAD PUSH2 0x1336 PUSH1 0x1F DUP10 AND DUP3 PUSH2 0x1249 JUMP JUMPDEST DUP4 SSTORE POP JUMPDEST PUSH1 0x1 PUSH1 0x2 DUP9 MUL ADD DUP9 SSTORE POP POP POP JUMPDEST POP POP POP POP POP POP JUMP JUMPDEST PUSH32 0x5468652076616C756520796F752070726F7669646564206973206C6573732074 PUSH0 DUP3 ADD MSTORE PUSH32 0x68616E206D696E696D756D20636F6E747269627574696F6E0000000000000000 PUSH1 0x20 DUP3 ADD MSTORE POP JUMP JUMPDEST PUSH0 PUSH2 0x13A9 PUSH1 0x38 DUP4 PUSH2 0xC49 JUMP JUMPDEST SWAP2 POP PUSH2 0x13B4 DUP3 PUSH2 0x134F JUMP JUMPDEST PUSH1 0x40 DUP3 ADD SWAP1 POP SWAP2 SWAP1 POP JUMP JUMPDEST PUSH0 PUSH1 0x20 DUP3 ADD SWAP1 POP DUP2 DUP2 SUB PUSH0 DUP4 ADD MSTORE PUSH2 0x13D6 DUP2 PUSH2 0x139D JUMP JUMPDEST SWAP1 POP SWAP2 SWAP1 POP JUMP JUMPDEST PUSH0 PUSH2 0x13E7 DUP3 PUSH2 0xA88 JUMP JUMPDEST SWAP2 POP PUSH32 0xFFFFFFFFFFFFFFFFFFFFFFFFFFFFFFFFFFFFFFFFFFFFFFFFFFFFFFFFFFFFFFFF DUP3 SUB PUSH2 0x1419 JUMPI PUSH2 0x1418 PUSH2 0x1029 JUMP JUMPDEST JUMPDEST PUSH1 0x1 DUP3 ADD SWAP1 POP SWAP2 SWAP1 POP JUMP JUMPDEST PUSH32 0x43616C6C6572206973206E6F74206120617070726F7665720000000000000000 PUSH0 DUP3 ADD MSTORE POP JUMP JUMPDEST PUSH0 PUSH2 0x1458 PUSH1 0x18 DUP4 PUSH2 0xC49 JUMP JUMPDEST SWAP2 POP PUSH2 0x1463 DUP3 PUSH2 0x1424 JUMP JUMPDEST PUSH1 0x20 DUP3 ADD SWAP1 POP SWAP2 SWAP1 POP JUMP JUMPDEST PUSH0 PUSH1 0x20 DUP3 ADD SWAP1 POP DUP2 DUP2 SUB PUSH0 DUP4 ADD MSTORE PUSH2 0x1485 DUP2 PUSH2 0x144C JUMP JUMPDEST SWAP1 POP SWAP2 SWAP1 POP JUMP JUMPDEST PUSH32 0x43616C6C65722068617320616C726561647920617070726F7665642074686973 PUSH0 DUP3 ADD MSTORE PUSH32 0x2072657175657374000000000000000000000000000000000000000000000000 PUSH1 0x20 DUP3 ADD MSTORE POP JUMP JUMPDEST PUSH0 PUSH2 0x14E6 PUSH1 0x28 DUP4 PUSH2 0xC49 JUMP JUMPDEST SWAP2 POP PUSH2 0x14F1 DUP3 PUSH2 0x148C JUMP JUMPDEST PUSH1 0x40 DUP3 ADD SWAP1 POP SWAP2 SWAP1 POP JUMP JUMPDEST PUSH0 PUSH1 0x20 DUP3 ADD SWAP1 POP DUP2 DUP2 SUB PUSH0 DUP4 ADD MSTORE PUSH2 0x1513 DUP2 PUSH2 0x14DA JUMP JUMPDEST SWAP1 POP SWAP2 SWAP1 POP JUMP INVALID LOG2 PUSH5 0x6970667358 0x22 SLT KECCAK256 0xB1 0xE6 0xD9 OR 0x5D 0xAD JUMP SWAP5 ADDRESS SWAP2 0x26 0x4F DUP14 0xD4 0xA8 DUP13 0xC0 0xE7 SWAP15 0x4A JUMP LOG4 0x4D DUP8 DUP9 EXTCODECOPY PUSH17 0x7038C9E38D64736F6C6343000814003300 "},"gasEstimates":{"creation":{"codeDepositCost":"1091200","executionCost":"infinite","totalCost":"infinite"},"external":{"approveRequest(uint256)":"infinite","approvers(address)":"2856","approversCount()":"2447","contribute()":"51036","createRequest(string,uint256,address)":"infinite","finalizeRequest(uint256)":"infinite","getContractBalance()":"2727","getRequestsCount()":"2485","getSummary()":"infinite","manager()":"2594","minimumContribution()":"2491","requests(uint256)":"infinite"}},"methodIdentifiers":{"approveRequest(uint256)":"d7d1bbdb","approvers(address)":"0a144391","approversCount()":"82fde093","contribute()":"d7bb99ba","createRequest(string,uint256,address)":"8a9cfd55","finalizeRequest(uint256)":"03441006","getContractBalance()":"6f9fb98a","getRequestsCount()":"3410452a","getSummary()":"4051ddac","manager()":"481c6a75","minimumContribution()":"937e09b1","requests(uint256)":"81d12c58"}},"storageLayout":{"storage":[{"astId":52,"contract":"Campaign:Campaign","label":"manager","offset":0,"slot":"0","type":"t_address"},{"astId":54,"contract":"Campaign:Campaign","label":"minimumContribution","offset":0,"slot":"1","type":"t_uint256"},{"astId":58,"contract":"Campaign:Campaign","label":"approvers","offset":0,"slot":"2","type":"t_mapping(t_address,t_bool)"},{"astId":62,"contract":"Campaign:Campaign","label":"requests","offset":0,"slot":"3","type":"t_array(t_struct(Request)50_storage)dyn_storage"},{"astId":68,"contract":"Campaign:Campaign","label":"approvals","offset":0,"slot":"4","type":"t_mapping(t_uint256,t_mapping(t_address,t_bool))"},{"astId":70,"contract":"Campaign:Campaign","label":"approversCount","offset":0,"slot":"5","type":"t_uint256"}],"types":{"t_address":{"encoding":"inplace","label":"address","numberOfBytes":"20"},"t_address_payable":{"encoding":"inplace","label":"address payable","numberOfBytes":"20"},"t_array(t_struct(Request)50_storage)dyn_storage":{"base":"t_struct(Request)50_storage","encoding":"dynamic_array","label":"struct Campaign.Request[]","numberOfBytes":"32"},"t_bool":{"encoding":"inplace","label":"bool","numberOfBytes":"1"},"t_mapping(t_address,t_bool)":{"encoding":"mapping","key":"t_address","label":"mapping(address => bool)","numberOfBytes":"32","value":"t_bool"},"t_mapping(t_uint256,t_mapping(t_address,t_bool))":{"encoding":"mapping","key":"t_uint256","label":"mapping(uint256 => mapping(address => bool))","numberOfBytes":"32","value":"t_mapping(t_address,t_bool)"},"t_string_storage":{"encoding":"bytes","label":"string","numberOfBytes":"32"},"t_struct(Request)50_storage":{"encoding":"inplace","label":"struct Campaign.Request","members":[{"astId":41,"contract":"Campaign:Campaign","label":"description","offset":0,"slot":"0","type":"t_string_storage"},{"astId":43,"contract":"Campaign:Campaign","label":"value","offset":0,"slot":"1","type":"t_uint256"},{"astId":45,"contract":"Campaign:Campaign","label":"recipient","offset":0,"slot":"2","type":"t_address_payable"},{"astId":47,"contract":"Campaign:Campaign","label":"complete","offset":20,"slot":"2","type":"t_bool"},{"astId":49,"contract":"Campaign:Campaign","label":"approvalCount","offset":0,"slot":"3","type":"t_uint256"}],"numberOfBytes":"128"},"t_uint256":{"encoding":"inplace","label":"uint256","numberOfBytes":"32"}}},"userdoc":{"kind":"user","methods":{},"version":1}}